:100000000C947200189500001895000018950000D7
:10001000189500000C94EA0A189500001895000045
:10002000189500001895000018950000189500001C
:10003000189500001895000018950000189500000C
:1000400018950000189500001895000018950000FC
:1000500018950000189500001895000018950000EC
:10006000189500000C943C3C189500001895000071
:1000700018950000189500001895000018950000CC
:1000800018950000189500001895000018950000BC
:100090000C946A3C18950000189500001895000013
:1000A000189500001895000018950000189500009C
:1000B000189500001895000018950000189500008C
:1000C0001895000018950000189500000C94983CB5
:1000D00018950000189500000C94C63C1895000077
:1000E000189500008FEF8DBFCCE0ECE34E2E81E23F
:1000F0008EBFD0E2FCE15F2EA89584B7082E877FE3
:1001000084BF88E199278093600090936000EEEFB0
:10011000FFE1A0E0B2E088278D933197E9F789E10C
:100120008093C40080E08093C50088E18093C10083
:100130000E943639662480E885BF85BF70910A0128
:10014000746070930A0170910B017B7F70930B01B7
:1001500070910A01716070930A0170910B017E7FAA
:1001600070930B0170910A01706170930A01709194
:100170000B017F7E70930B019898A09A3E98469A47
:100180000F9A17980D98159A3A9A4298709107010C
:100190007D7F70930701709108017D7F7093080146
:1001A000709107017E7F70930701709108017E7F37
:1001B0007093080170910A017D7F70930A0170911C
:1001C0000B017D7F70930B013D9A45980FEF1FEF58
:1001D00020E030E0A0E4B2E00D931D932D933C931A
:1001E00070910701746070930701229A2A983F9AD0
:1001F00047983D9A4598269A2E98279A2F988DE0F1
:10020000A3EDB3E08D9388278C938AE0A3EDB3E050
:100210000E94F3378D9388278C9370910A01777F22
:1002200070930A0170910B01786070930B017091CB
:100230000701777F709307017091080178607093D0
:10024000080170910A017F7D70930A0180E080931C
:10025000360480E090E0A4E3B4E08D939C9380E1C9
:100260008093C40080E08093C5007091C0007260EC
:100270007093C00088E18093C10086E08093C20043
:100280007091C10070687093C10088EE93E00E9485
:10029000663AEAEFF1E80E94303C0E942C380E9456
:1002A0003338E4E1F0E0A3E2B2E091E00E94353EB1
:1002B000E5E1F0E0A2E2B2E091E00E94353EA2E288
:1002C000B2E00D91112740E051E00E947D3BA2E693
:1002D000B4E00D931C93A2E6B4E00D911C91A3E24F
:1002E000B2E04D915527040F151FA2E6B4E00D931F
:1002F0001C93E6E1F0E0A3E2B2E091E00E94353E1B
:10030000E7E1F0E0A2E2B2E091E00E94353EA2E235
:10031000B2E00D91112740E051E00E947D3BA4E640
:10032000B4E00D931C93A4E6B4E00D911C91A3E2FC
:10033000B2E04D915527040F151FA4E6B4E00D93CC
:100340001C93E8E1F0E0A3E2B2E091E00E94353EC8
:10035000E9E1F0E0A2E2B2E091E00E94353EA2E2E3
:10036000B2E00D91112740E051E00E947D3BA6E6EE
:10037000B4E00D931C93A6E6B4E00D911C91A3E2AA
:10038000B2E04D915527040F151FA6E6B4E00D937A
:100390001C93A4E6B4E00D911C91A2E6B4E04D914B
:1003A0005C91041B150BADE1B2E00D931C93ADE124
:1003B000B2E00D911C9142E050E00E94B337ADE1F4
:1003C000B2E04D935C93A2E6B4E04D915C91A6E659
:1003D000B4E00D911C91041715070CF402C00C94A5
:1003E0000102ADE1B2E00D911C91A2E6B4E04D91A5
:1003F0005C91040F151FA6E6B4E00D931C930C94BA
:100400001F02A4E6B4E04D915C91A6E6B4E00D9124
:100410001C91041715071CF011F00C9411020C9498
:100420001F02ADE1B2E00D911C91A2E6B4E04D9146
:100430005C91040F151FA6E6B4E00D931C93EAE14E
:10044000F0E0A3E2B2E091E00E94353EEBE1F0E0A3
:10045000A2E2B2E091E00E94353EA2E2B2E00D914C
:10046000112740E051E00E947D3BA9E6B4E00D93E6
:100470001C93A9E6B4E00D911C91A3E2B2E04D916A
:100480005527040F151FA9E6B4E00D931C93ECE16A
:10049000F0E0A3E2B2E091E00E94353EEDE1F0E051
:1004A000A2E2B2E091E00E94353EA2E2B2E00D91FC
:1004B000112740E051E00E947D3BABE6B4E00D9394
:1004C0001C93ABE6B4E00D911C91A3E2B2E04D9118
:1004D0005527040F151FABE6B4E00D931C93EEE116
:1004E000F0E0A3E2B2E091E00E94353EEFE1F0E0FF
:1004F000A2E2B2E091E00E94353EA2E2B2E00D91AC
:10050000112740E051E00E947D3BADE6B4E00D9341
:100510001C93ADE6B4E00D911C91A3E2B2E04D91C5
:100520005527040F151FADE6B4E00D931C93E0E2D0
:10053000F0E0A3E2B2E091E00E94353EE1E2F0E0BB
:10054000A2E2B2E091E00E94353EA2E2B2E00D915B
:10055000112740E051E00E947D3BAFE6B4E00D93EF
:100560001C93AFE6B4E00D911C91A3E2B2E04D9173
:100570005527040F151FAFE6B4E00D931C93E2E27C
:10058000F0E0A3E2B2E091E00E94353EE3E2F0E069
:10059000A2E2B2E091E00E94353EA2E2B2E00D910B
:1005A000112740E051E00E947D3BA1E7B4E00D93AC
:1005B0001C93A1E7B4E00D911C91A3E2B2E04D9130
:1005C0005527040F151FA1E7B4E00D931C93E4E237
:1005D000F0E0A3E2B2E091E00E94353EE5E2F0E017
:1005E000A2E2B2E091E00E94353EA2E2B2E00D91BB
:1005F000112740E051E00E947D3BA3E7B4E00D935A
:100600001C93A3E7B4E00D911C91A3E2B2E04D91DD
:100610005527040F151FA3E7B4E00D931C93E6E2E2
:10062000F0E0A3E2B2E091E00E94353EE7E2F0E0C4
:10063000A2E2B2E091E00E94353EA2E2B2E00D916A
:10064000112740E051E00E947D3BA5E7B4E00D9307
:100650001C93A5E7B4E00D911C91A3E2B2E04D918B
:100660005527040F151FA5E7B4E00D931C93E8E28E
:10067000F0E0A3E2B2E091E00E94353EE9E2F0E072
:10068000A2E2B2E091E00E94353EA2E2B2E00D911A
:10069000112740E051E00E947D3BA7E7B4E00D93B5
:1006A0001C93A7E7B4E00D911C91A3E2B2E04D9139
:1006B0005527040F151FA7E7B4E00D931C93EAE23A
:1006C000F0E0A3E2B2E091E00E94353EEBE2F0E020
:1006D000A2E2B2E091E00E94353EA2E2B2E00D91CA
:1006E000112740E051E00E947D3BA9E7B4E00D9363
:1006F0001C93A9E7B4E00D911C91A3E2B2E04D91E7
:100700005527040F151FA9E7B4E00D931C93ECE2E5
:10071000F0E0A3E2B2E091E00E94353EEDE2F0E0CD
:10072000A2E2B2E091E00E94353EA2E2B2E00D9179
:10073000112740E051E00E947D3BABE7B4E00D9310
:100740001C93ABE7B4E00D911C91A3E2B2E04D9194
:100750005527040F151FABE7B4E00D931C93EEE291
:10076000F0E0A3E2B2E091E00E94353EEFE2F0E07B
:10077000A2E2B2E091E00E94353EA2E2B2E00D9129
:10078000112740E051E00E947D3BADE7B4E00D93BE
:100790001C93ADE7B4E00D911C91A3E2B2E04D9142
:1007A0005527040F151FADE7B4E00D931C93E0E34C
:1007B000F0E0A3E2B2E091E00E94353EE1E3F0E038
:1007C000A2E2B2E091E00E94353EA2E2B2E00D91D9
:1007D000112740E051E00E947D3BAFE7B4E00D936C
:1007E0001C93AFE7B4E00D911C91A3E2B2E04D91F0
:1007F0005527040F151FAFE7B4E00D931C93E2E3F8
:10080000F0E0A3E2B2E091E00E94353EE3E3F0E0E5
:10081000A2E2B2E091E00E94353EA2E2B2E00D9188
:10082000112740E051E00E947D3BA1E8B4E00D9328
:100830001C93A1E8B4E00D911C91A3E2B2E04D91AC
:100840005527040F151FA1E8B4E00D931C93E4E3B2
:10085000F0E0A3E2B2E091E00E94353EE5E3F0E093
:10086000A2E2B2E091E00E94353EA2E2B2E00D9138
:10087000112740E051E00E947D3BA3E8B4E00D93D6
:100880001C93A3E8B4E00D911C91A3E2B2E04D915A
:100890005527040F151FA3E8B4E00D931C93E6E35E
:1008A000F0E0A3E2B2E091E00E94353E80912302A5
:1008B0008093850400918504023018F011F00C94A7
:1008C00063040C94660480E080938504E8E3F0E020
:1008D000A3E2B2E091E00E94353E80912302809332
:1008E0008604009186040A3018F011F00C947A0402
:1008F0000C947D0480E080938604EAE3F0E0A3E2B8
:10090000B2E091E00E94353EEBE3F0E0A2E2B2E01B
:1009100091E00E94353EA2E2B2E00D91112740E045
:1009200051E00E947D3BA9E9B3E00D931C93A9E936
:10093000B3E00D911C91A3E2B2E04D915527040F55
:10094000151FA9E9B3E00D931C93ECE3F0E0A3E2DB
:10095000B2E091E00E94353EEDE3F0E0A2E2B2E0C9
:1009600091E00E94353EA2E2B2E00D91112740E0F5
:1009700051E00E947D3BABE9B3E00D931C93ABE9E2
:10098000B3E00D911C91A3E2B2E04D915527040F05
:10099000151FABE9B3E00D931C93EEE3F0E0A3E287
:1009A000B2E091E00E94353EEFE3F0E0A2E2B2E077
:1009B00091E00E94353EA2E2B2E00D91112740E0A5
:1009C00051E00E947D3BADE9B3E00D931C93ADE98E
:1009D000B3E00D911C91A3E2B2E04D915527040FB5
:1009E000151FADE9B3E00D931C93E0E4F0E0A3E242
:1009F000B2E091E00E94353EE1E4F0E0A2E2B2E034
:100A000091E00E94353EA2E2B2E00D91112740E054
:100A100051E00E947D3BAFE9B3E00D931C93AFE939
:100A2000B3E00D911C91A3E2B2E04D915527040F64
:100A3000151FAFE9B3E00D931C93E2E4F0E0A3E2ED
:100A4000B2E091E00E94353EE3E4F0E0A2E2B2E0E1
:100A500091E00E94353EA2E2B2E00D91112740E004
:100A600051E00E947D3BA1EAB3E00D931C93A1EA03
:100A7000B3E00D911C91A3E2B2E04D915527040F14
:100A8000151FA1EAB3E00D931C93E4E4F0E0A3E2A8
:100A9000B2E091E00E94353EE5E4F0E0A2E2B2E08F
:100AA00091E00E94353EA2E2B2E00D91112740E0B4
:100AB00051E00E947D3BA3EAB3E00D931C93A3EAAF
:100AC000B3E00D911C91A3E2B2E04D915527040FC4
:100AD000151FA3EAB3E00D931C93E6E4F0E0A3E254
:100AE000B2E091E00E94353EE7E4F0E0A2E2B2E03D
:100AF00091E00E94353EA2E2B2E00D91112740E064
:100B000051E00E947D3BA5EAB3E00D931C93A5EA5A
:100B1000B3E00D911C91A3E2B2E04D915527040F73
:100B2000151FA5EAB3E00D931C93E8E4F0E0A3E2FF
:100B3000B2E091E00E94353EE9E4F0E0A2E2B2E0EA
:100B400091E00E94353EA2E2B2E00D91112740E013
:100B500051E00E947D3BA7EAB3E00D931C93A7EA06
:100B6000B3E00D911C91A3E2B2E04D915527040F23
:100B7000151FA7EAB3E00D931C93EAE4F0E0A3E2AB
:100B8000B2E091E00E94353EEBE4F0E0A2E2B2E098
:100B900091E00E94353EA2E2B2E00D91112740E0C3
:100BA00051E00E947D3BA9EAB3E00D931C93A9EAB2
:100BB000B3E00D911C91A3E2B2E04D915527040FD3
:100BC000151FA9EAB3E00D931C93ECE4F0E0A3E257
:100BD000B2E091E00E94353EEDE4F0E0A2E2B2E046
:100BE00091E00E94353EA2E2B2E00D91112740E073
:100BF00051E00E947D3BABEAB3E00D931C93ABEA5E
:100C0000B3E00D911C91A3E2B2E04D915527040F82
:100C1000151FABEAB3E00D931C93EEE4F0E0A3E202
:100C2000B2E091E00E94353EEFE4F0E0A2E2B2E0F3
:100C300091E00E94353EA2E2B2E00D91112740E022
:100C400051E00E947D3BADEAB3E00D931C93ADEA09
:100C5000B3E00D911C91A3E2B2E04D915527040F32
:100C6000151FADEAB3E00D931C93E0E5F0E0A3E2BD
:100C7000B2E091E00E94353EE1E5F0E0A2E2B2E0B0
:100C800091E00E94353EA2E2B2E00D91112740E0D2
:100C900051E00E947D3BAFEAB3E00D931C93AFEAB5
:100CA000B3E00D911C91A3E2B2E04D915527040FE2
:100CB000151FAFEAB3E00D931C93E2E5F0E0A3E269
:100CC000B2E091E00E94353EE3E5F0E0A2E2B2E05E
:100CD00091E00E94353EA2E2B2E00D91112740E082
:100CE00051E00E947D3BA1EBB3E00D931C93A1EB7F
:100CF000B3E00D911C91A3E2B2E04D915527040F92
:100D0000151FA1EBB3E00D931C93E4E5F0E0A3E223
:100D1000B2E091E00E94353EE5E5F0E0A2E2B2E00B
:100D200091E00E94353EA2E2B2E00D91112740E031
:100D300051E00E947D3BA3EBB3E00D931C93A3EB2A
:100D4000B3E00D911C91A3E2B2E04D915527040F41
:100D5000151FA3EBB3E00D931C93E6E5F0E0A3E2CF
:100D6000B2E091E00E94353EE7E5F0E0A2E2B2E0B9
:100D700091E00E94353EA2E2B2E00C9111272227B9
:100D8000332740E051E060E070E00E94873BA6E836
:100D9000B3E00D931D932D933D93A6E8B3E00D9121
:100DA0001D912D913C91A3E2B2E04C91552766270D
:100DB00077270E94493DA6E8B3E00D931D932D933C
:100DC0003D93A6E8B3E00D911D912D913C9148EE25
:100DD00053E060E070E00E94873BA6E8B3E00D932B
:100DE0001D932D933D93A6E8B3E00D911D912D9198
:100DF0003C91A2E8B3E00D931D932D933C93E8E55D
:100E0000F0E0A3E2B2E091E00E94353EE9E5F0E0D7
:100E1000A2E2B2E091E00E94353EA2E2B2E00D9182
:100E2000112740E051E00E947D3BA7E8B4E00D931C
:100E30001C93A7E8B4E00D911C91A3E2B2E04D91A0
:100E40005527040F151FA7E8B4E00D931C9387E8FE
:100E500080937A0080E080937C0070917A007068C3
:100E600070937A0089E18093CC0080E08093CD007C
:100E70007091C8007D7F7093C80086E08093CA009F
:100E800088E18093C9007091C90070687093C900AF
:100E900000EC12E120E030E0A4E5B5E00D931D93F5
:100EA0002D933C9387E68093D40080E08093D50017
:100EB0007091D0007D7F7093D00086E08093D20047
:100EC0008091D100807E88618093D1007091D100A3
:100ED00070687093D10082E28093340180E0809347
:100EE00035017091300172607093300186E080931B
:100EF000320180913101807E88618093310170914F
:100F00003101706870933101209A2898E6E0F2E888
:100F10000E94303C0E942C380E9433383998419A04
:100F20003B9A439A39983B9A439A6C9880916A000D
:100F30008C7F826080936A00E8E0F2E80E94303C97
:100F40000E942C380E943338E1E0F0E00E942D39F5
:100F500000915503003011F00C94B607ECE0F2E874
:100F60000E94303C0E942C380E943338E6E1F2E8BF
:100F70000E94303C0E942C380E94333890990C9487
:100F8000C107EC98EAE1F2E80E94303C0E942C385C
:100F90000E94333878940C94760BA6E0B4E0E0E23B
:100FA000F2E80E94303C0E94AA3B80E090E0A4E37B
:100FB000B4E08D939C9370910B017B7F70930B0138
:100FC00070910B017E7F70930B01ABEDB2E0E6EE0A
:100FD000F1E80E94303C0E940B3CA7EDB2E0E6EE47
:100FE000F1E80E94303C0E940B3CE8E2F2E80E94EB
:100FF000303C0E942C38E2E6F4E0A4E2BCE10E941E
:101000006F3D0E942438E8E3F2E80E94303C0E94E1
:101010002C38E4E6F4E0A4E2BCE10E946F3D0E94BB
:101020002438E0E4F2E80E94303C0E942C38A6E02C
:10103000B1E08C9181FBA4E2BCE10E94213C8D9344
:1010400088278C930E942438EAE4F2E80E94303C1E
:101050000E942C38A6E0B1E08C9180FBA4E2BCE1B8
:101060000E94213C8D9388278C930E9424380E94F3
:10107000333800917C00007E10917B00177F026066
:1010800010937B0000937C000E94B03BAFE1B4E082
:101090008D939C93A6E0B1E00C9101FB81E00EF4EE
:1010A00080E08F93A6E0B1E00C9100FB81E00EF4AC
:1010B00080E09F9189238F93A9E0B1E00C9101FB1F
:1010C00081E00EF480E09F918923882311F40C9431
:1010D0006F0880E090E0A5EBB3E08D939C93A6E0D1
:1010E000B1E00C9101FB16F00C94890882E390E0CA
:1010F0000E94663AA6E0B1E00C9101FB16F00C9458
:10110000870881E090E0A5EBB3E08D939C930C946D
:10111000BB08A6E0B1E00C9100FB16F00C94A3080C
:1011200082E390E00E94663AA6E0B1E00C9100FBF9
:1011300016F00C94A10882E090E0A5EBB3E08D934B
:101140009C930C94BB08A9E0B1E00C9101FB16F054
:101150000C94BB0882E390E00E94663AA9E0B1E0FB
:101160000C9101FB16F00C94BB0883E090E0A5EB1A
:10117000B3E08D939C93A5EBB3E00D911C910030EF
:1011800050E0150781E009F080E08F93A5EBB3E014
:101190000D911C91033050E0150781E009F080E0CB
:1011A0009F91892B882311F40C94D608A4E3B4E012
:1011B0000D911C91013050E0150781E009F080E0AD
:1011C0008F9300916804003081E009F080E09F91E6
:1011D0008923882311F40C94510900917C00007E2E
:1011E00010917B00177F026010937B0000937C00BE
:1011F0000E94B03BA1E2B4E08D939C93AFE1B4E0D8
:101200000D911C91A1E2B4E04D915C91041B150B72
:10121000ADE1B2E00D931C93ADE1B2E08D919C91F4
:101220000E94D337082F192F17FB1EF42FEF3FEF23
:1012300002C02227332744E150E060E070E00E94C2
:10124000533D1CF011F00C9427090C945109ADE1A9
:10125000B2E08D919C910E94D337ABE1B2E08D93C7
:101260009C93EBE1F2E0A7E2B6E00E946F3DA6E0BE
:10127000B4E0E4E5F2E80E94303C0E94AA3BE7E2D9
:10128000F6E0A6E0B4E00E94F3370E94F33D7091CF
:101290000B017B7F70930B0170910B017E7F70932C
:1012A0000B0136990C944C0A8AE090E00E94663A51
:1012B00036990C944C0A36990C9464098AE090E0B3
:1012C0000E94663A0C945B098AE090E00E94663ABC
:1012D000A4E3B4E00D911C91013050E0150711F02A
:1012E0000C94B109E4E6F2E80E94303C0E942C38EC
:1012F0000E943338A6E0B4E0EAE6F2E80E94303C0F
:101300000E94AA3B80E090E0A4E3B4E08D939C931C
:10131000179880E080933604429870910B017B7F90
:1013200070930B0170910B017E7F70930B01ABEDFD
:10133000B2E0E6EEF1E80E94303C0E940B3CA7EDE3
:10134000B2E0E6EEF1E80E94303C0E940B3CE4E79C
:10135000F2E80E94303C0E942C380E9433380C94F2
:101360004C0AADECB2E00D911C910F3F5FEF1507F9
:101370001CF011F00C94BE090C94110A00917C0031
:10138000007E10917B00177F026010937B0000931A
:101390007C000E94B03BA1E2B4E08D939C93A1E25B
:1013A000B4E08D919C91AFE1B4E08D939C9381E08A
:1013B00090E0A4E3B4E08D939C93AAE2B4E08D9115
:1013C0009C91A8EFB3E08D939C93E3EEF2E0ABED3C
:1013D000B2E00E94F83DEFEDF2E0A7EDB2E00E942E
:1013E000F83DEEE7F2E80E94303C0E942C38EAE239
:1013F000F4E0A4E2BCE10E946F3D0E942438E6E8DC
:10140000F2E80E94303C0E942C38E1E2F4E0A4E2D1
:10141000BCE10E946F3D0E9424380E9433380C9436
:101420004C0A00917C00007E10917B00177F0260C7
:1014300010937B0000937C000E94B03BA1E2B4E0DB
:101440008D939C93A1E2B4E08D919C91AFE1B4E0C7
:101450008D939C9381E090E0A4E3B4E08D939C9302
:10146000AAE2B4E08D919C91A8EFB3E08D939C9398
:10147000E3EEF2E0ABEDB2E00E94F83DEFEDF2E01A
:10148000A7EDB2E00E94F83DE0E9F2E80E94303CAE
:101490000E942C380E9433380E943D38082F0030BB
:1014A00018F011F00C94560A0C94A80A0E945F0FD1
:1014B000A4E3B4E00D911C91013050E0150781E0E8
:1014C00009F080E08F93A2E6B2E00D911C9101300B
:1014D00050E0150781E009F080E09F91892388237F
:1014E00011F40C94750A0E94F212A5E2B0E00C917E
:1014F00006FB81E00EF080E08F93A5E2B0E00C9156
:1015000007FB81E00EF080E09F91892B882311F486
:101510000C949A0AACE5B3E08C918F5F8C930091A8
:101520005C03033018F011F00C94980A0C949A0A9A
:101530002E982F980E94422980E090E0A2E6B2E027
:101540008D939C9380E090E0A4E4B2E08D939C9313
:101550000E949C38082F003018F011F00C94B20A49
:101560000C94BC0AE6E9F2E80E94303C0E942C3858
:101570000E9433380E94B01D0E94FA37082F0030B5
:1015800018F011F00C94C60A0C94CB0A0E94003893
:10159000AFE3B2E08C93A0EFB2E0E4EAF2E80E949D
:1015A000303C2FEF91E00E94CC3B003018F011F05E
:1015B0000C94DC0A0C94E80AA0EFB2E088278C9324
:1015C000E4EAF2E80E94303C0E942C380E94333852
:1015D0000C944A080F921F922F923F924F925F9263
:1015E0007F92AF92BF920F931F932F933F934F938E
:1015F0005F936F937F938F939F93AF93BF93CF939B
:10160000DF93EF93FF938FB78F938BB78F938827D9
:101610008BBFEC98A0EFB2E088278C9380ED97E029
:10162000A9E1B2E08D939C9380E080933F02A9E111
:10163000B2E00D911C91003050E015071CF011F044
:101640000C94240B0C94540B0E94243AAFE3B2E0A8
:101650008C9300913F02003018F011F00C94320B83
:101660000C94490B80ED97E0A9E1B2E08D939C9337
:10167000AFE3B2E08C910E943638AFE3B2E08C91D8
:10168000A0EFB2E00E94F3378D9388278C930C94DF
:101690004D0BA9E1B2E00E94A637EF93E8E0EA958E
:1016A000F1F7EF910C94170BE49AEC9A8F918BBFA2
:1016B0008F918FBFFF91EF91DF91CF91BF91AF914C
:1016C0009F918F917F916F915F914F913F912F915A
:1016D0001F910F91BF90AF907F905F904F903F9080
:1016E0002F901F900F901895F894FFCFEAEAF2E838
:1016F0000E94303C0E942C380E9433383FB6F89448
:10170000D201ECEBF2E80E94303C0E94AA3B85E15A
:101710000E94773B81E0D2018C9381E00E94773B6D
:101720000E94661D249686E10E94733B3FB6F894A2
:10173000A0E1B0E0BA93AA93D201E0ECF2E80E94F3
:10174000303C0E94AA3B85E10E94773B00EA16E804
:1017500021E030E0D2010D931D932D933C9384E062
:101760000E94773B0E94E31C269689E10E94733B0E
:10177000013011F00C94840C81E0809357033FB644
:10178000F894D201E4ECF2E80E94303C0E94AA3BBB
:1017900085E10E94773B81E0D2018C9381E00E9439
:1017A000773B0E94661D249686E10E94733B3FB6FC
:1017B000F894A0E1B0E0BA93AA93D201E0ECF2E889
:1017C0000E94303C0E94AA3B85E10E94773B00EAE0
:1017D00016E821E030E0D2010D931D932D933C9348
:1017E00084E00E94773B0E94E31C269689E10E94D8
:1017F000733B013011F00C94840C3FB6F894D20185
:10180000EAECF2E80E94303C0E94AA3B85E10E948B
:10181000773B81E0D2018C9381E00E94773B0E946C
:10182000661D249686E10E94733B3FB6F894A0E1C2
:10183000B0E0BA93AA93D201E0ECF2E80E94303C07
:101840000E94AA3B85E10E94773B00EA16E821E06E
:1018500030E0D2010D931D932D933C9384E00E94C0
:10186000773B0E94E31C269689E10E94733B01307E
:1018700011F00C94840C3FB6F894D201E4EDF2E838
:101880000E94303C0E94AA3B85E10E94773B81E0A8
:10189000D2018C9381E00E94773B0E94661D2496C2
:1018A00086E10E94733B3FB6F894A0E1B0E0BA93A2
:1018B000AA93D201EEEDF2E80E94303C0E94AA3BCE
:1018C00085E10E94773B00EA16E821E030E0D20192
:1018D0000D931D932D933C9384E00E94773B0E94CF
:1018E000E31C269689E10E94733B013011F00C94B1
:1018F000840C81E080935503E2EEF2E80E94303CD4
:101900000E942C380E94333800915503003011F0AA
:101910000C94A70CA6E5B3E08C918F5F8C9300919B
:101920005603043010F00C94A70C009157030030BC
:1019300011F00C94A10C459A84EF91E00E94663A54
:101940004598E3E0F0E00E942D390C94760B3FB609
:10195000F89480EDD2018C9381E00E94773B0E9445
:10196000002D229681E00E94733B009124020F31EA
:1019700011F00C94BE0C81E0809396033FB6F8946E
:1019800082EDD2018C9381E00E94773B0E94002D72
:10199000229681E00E94733B009124020F3111F0E6
:1019A0000C94D50C81E0809398033FB6F89484EDB5
:1019B000D2018C9381E00E94773B0E94002D2296F9
:1019C00081E00E94733B009124020F3111F00C94CE
:1019D000EC0C81E080939703EAEEF2E80E94303C41
:1019E0000E942C38E4E5F5E0A4E2BCE10E94693DE8
:1019F0000E9424380E9433380E943D38082F00305E
:101A000018F011F00C94060D0C94150D0E94483836
:101A1000AFE3B2E08C9300913F020A3011F00C94D6
:101A2000130D0C94150D0C94FC0C00E010E020E05C
:101A300030E0A3E3B6E00D931D932D933C9340E279
:101A40005EE460E070E0A3E3B6E00D911D912D919E
:101A50003C910E94533D0CF402C00C946F0D0E9407
:101A60004338AFE3B2E08C9381E00E94773BAFE371
:101A7000B2E08C91A881B9818D9388278C93A8813D
:101A8000B981EAEFF2E80E94303C0E94423E0FB674
:101A900081E0481A80E0580A22960FBE11F00C949B
:101AA000610DECEFF2E80E94303C0E942C380E945D
:101AB000333881E090E0A2E6B2E08D939C930C94E1
:101AC0006F0DA3E3B6E00E949237EF93FF93E4E239
:101AD000F0E00E94123AFF91EF910C941F0DA2E6E4
:101AE000B2E00D911C91003050E0150711F00C94FC
:101AF000990DE4E0F3E80E94303C0E942C380E94EB
:101B0000333889E18093CC0080E08093CD007091E0
:101B1000C8007D7F7093C80086E08093CA008091E2
:101B2000C900807E88618093C9000E94AB0E0C942E
:101B3000EC0C81E10E94EA3880E090E0A4E4B2E09D
:101B40008D939C9300E010E020E030E0A3E3B6E04A
:101B50000D931D932D933C9340E157E260E070E0BC
:101B6000A3E3B6E00D911D912D913C910E94533D50
:101B70000CF402C00C94FB0D0E947238AFE3B2E08B
:101B80008C9300913F02033011F00C94ED0DE4E1D1
:101B9000F3E80E94303C0E942C38EFE3F2E0A4E22C
:101BA000BCE10E94763D0E942438EEE1F3E80E94F9
:101BB000303C0E942C38E3E3F6E0A4E2BCE10E9452
:101BC000693D0E9424380E94333881E090E0A4E40B
:101BD000B2E08D939C930C94FB0DA3E3B6E00E94BE
:101BE0009237EF93FF93E4E2F0E00E94123AFF9104
:101BF000EF910C94AC0D3FB6F89480EDD2018C932C
:101C000081E00E94773B0E94002D229681E00E9495
:101C1000733B3FB6F89482EDD2018C9381E00E9431
:101C2000773B0E94002D229681E00E94733B3FB6D5
:101C3000F89484EDD2018C9381E00E94773B0E945E
:101C4000002D229681E00E94733B0E943D38082FB0
:101C5000003018F011F00C942F0E0C94360E0E94E8
:101C60004838AFE3B2E08C930C94250E0C94CD076A
:101C700083E090E0ADE3B2E08D939C93E2E2F3E881
:101C80000E94303C0E942C38EDE3F2E0A4E2BCE17B
:101C90000E946F3D0E9424380E94333881E090E01A
:101CA000ADE1B2E08D939C93ADE1B2E00D911C915A
:101CB000083C50E015071CF011F00C94A90EADE3A0
:101CC000B2E00D911C91043050E015070CF402C0F5
:101CD0000C94A30E81E090E0ABE1B2E08D939C9375
:101CE000ADE3B2E04D915C91ABE1B2E00D911C919E
:101CF000041715071CF011F00C94970E70910B014E
:101D0000706170930B018CE291E00E94663A7091D1
:101D10000B017F7E70930B018CE291E00E94663A8A
:101D2000A895ABE1B2E00E949F370C94700E8CED49
:101D300095E00E94663AA8958CED95E00E94663A7F
:101D4000A8950C94A30EADE1B2E00E949F370C94CD
:101D5000540E0C94CD070E940A39E0E3F3E80E9488
:101D6000303C0E942C380E943338A6E6B2E0E6E30D
:101D7000F3E80E94303C0E94AA3BE3EDF3E0A6E6C4
:101D8000B2E00E94F3370E94F33DA6E6B2E00E9463
:101D9000CE3884E690E00E94663AA6E6B2E0EEE431
:101DA000F3E80E94303C0E94AA3BE3EDF3E0A6E694
:101DB000B2E00E94F3370E94F33DA6E6B2E00E9433
:101DC000CE3884E690E00E94663AA6E6B2E0E6E607
:101DD000F3E80E94303C0E94AA3BE3EDF3E0A6E664
:101DE000B2E00E94F3370E94F33DA6E6B2E00E9403
:101DF000CE3884E690E00E94663AA6E6B2E0EEE7CE
:101E0000F3E80E94303C0E94AA3BE3EDF3E0A6E633
:101E1000B2E00E94F3370E94F33DA6E6B2E00E94D2
:101E2000CE3884E690E00E94663AA6E6B2E0E6E9A3
:101E3000F3E80E94303C0E94AA3BE3EDF3E0A6E603
:101E4000B2E00E94F3370E94F33DA6E6B2E00E94A2
:101E5000CE3884E690E00E94663AA6E6B2E0EEEA6A
:101E6000F3E80E94303C0E94AA3BE3EDF3E0A6E6D3
:101E7000B2E00E94F3370E94F33DA6E6B2E00E9472
:101E8000CE3889E18093CC0080E08093CD007091C2
:101E9000C8007D7F7093C80086E08093CA0080915F
:101EA000C900807E88618093C9000895E998E19A0D
:101EB00081E090E0A4E6B2E08D939C9308952A9A85
:101EC000A6E6B2E088278C9380E090E0A2E6B2E03C
:101ED0008D939C9380E090E0AEEEB2E08D939C9366
:101EE00080E080933B06AEEEB2E00D911C91003194
:101EF00057E215070CF402C00C9409100E943D38FB
:101F0000082F003018F011F00C94880F0C94FB0F80
:101F100080E090E0AEEEB2E08D939C930E94483852
:101F2000A1E2B2E08C93A1E2B2E08C910E9436383B
:101F300081E00E94773BA1E2B2E08C91A881B98157
:101F40008D9388278C93A881B981EAEFF2E80E94EB
:101F5000303C0E94423E0FB681E0481A80E0580AA9
:101F600022960FBE11F00C94B80F81E080933B06CF
:101F700000913B06013011F00C94F90F0091210201
:101F80000D3011F00C94C60F0C94F90F0091210242
:101F90000A3011F00C94E10F0E946C38082F0030C9
:101FA00018F011F00C94D60F0C94DD0F0E944838F5
:101FB000AFE3B2E08C930C94CC0F0C941B100C94F8
:101FC000F90FA6E6B2E00E943C3E082F0A3518F051
:101FD00011F00C94ED0F0C94EF0F0C94D711A1E2BB
:101FE000B2E08C91A6E6B2E00E94F3378D93882789
:101FF0008C930C940710AEEEB2E00E949F37EF93E3
:10200000FF93E4E2F0E00E94123AFF91EF910C940A
:10201000730FE8ECF3E80E94303C0E942C38EEEE9F
:10202000F2E0A4E2BCE10E946F3D0E9424380E94CD
:1020300033380C94D71186E60E94773BE6E6F2E04F
:1020400007E0A881B9810E94123EA881B981EAED1A
:10205000F3E80E94303C0E94423E0FB686E6481AE2
:1020600080E0580A22960FBE11F40C94E110E2EEC3
:10207000F3E80E94303C0E942C38A6E6B2E00E94B1
:1020800026380E94333886E60E94773BE6E6F2E087
:1020900007E0A881B9810E94123EA881B981E8EECB
:1020A000F3E80E94303C0E94423E0FB686E6481A92
:1020B00080E0580A22960FBE11F00C947710A6E625
:1020C000B2E0E6E3F3E80E94303C0E94AA3BE3ED75
:1020D000F3E0A6E6B2E00E94F3370E94F33DA6E6E5
:1020E000B2E00E94CE3884E690E00E94663A86E62E
:1020F0000E94773BE6E6F2E007E0A881B9810E9402
:10210000123EA881B981E0EFF3E80E94303C0E94C2
:10211000423E0FB686E6481A80E0580A22960FBE65
:1021200011F00C94AB10A6E6B2E0E6E6F3E80E94EC
:10213000303C0E94AA3BE3EDF3E0A6E6B2E00E9449
:10214000F3370E94F33DA6E6B2E00E94CE3884E663
:1021500090E00E94663A86E60E94773BE6E6F2E06F
:1021600007E0A881B9810E94123EA881B981E8EFF9
:10217000F3E80E94303C0E94423E0FB686E6481AC1
:1021800080E0580A22960FBE11F00C94DF10A6E6EC
:10219000B2E0E6E6F3E80E94303C0E94AA3BE3EDA1
:1021A000F3E0A6E6B2E00E94F3370E94F33DA6E614
:1021B000B2E00E94CE3884E690E00E94663A0C9429
:1021C000D711E6E6F2E09CE20CE03AE0ACE3B6E0E0
:1021D0000E94583EADE1B2E02D9388278C93ADE18B
:1021E000B2E00D911C910A3050E0150711F40C94E7
:1021F0000D11E2EEF3E80E94303C0E942C38EDE134
:10220000F2E0A4E2BCE10E946F3D0E9424380E94EB
:1022100033380C94D7110C946011A7E9B6E00E94F2
:10222000C73FEDE0F0E0AEEBB6E00E94F83DEAEE2D
:10223000F1E80E94303C0E94BA3FEEEBF6E00E94CB
:102240008D3E0E947C3FEDE0F0E00E949D3EADECB3
:10225000B2E0EE0C000FE794DD92EC92A4EAB6E057
:102260000E94C73FEDE0F0E0AEEBB6E00E94F83D23
:10227000EAEEF1E80E94303C0E94BA3FEEEBF6E055
:102280000E948D3E0E947C3FEDE0F0E00E949D3E6A
:10229000ABECB2E0EE0C000FE794DD92EC92ADEC0B
:1022A000B2E00D911C91043150E015070CF402C00E
:1022B0000C94601180E090E0A4E3B4E08D939C93D3
:1022C000E1EBF6E002E0A7EBB3E00E94123EA7EBE1
:1022D000B3E00E94F337EEEFF3E80E94303C0E9437
:1022E000AA3B83E0E1EBF6E002E00A93A7EBB3E060
:1022F0000E94F3370E940B3EA7EBB3E00E94F33736
:10230000EEEFF3E80E94303C0E94AA3BA1EBB6E05E
:102310000E943C3EEA2FFB2F33970FEFA7EBB3E071
:102320000E94F3370E94123EA7EBB3E00E94F337FE
:10233000E0E0F4E80E94303C0E94AA3BE9E4F6E0C9
:1023400002E0A7EBB3E00E94F3370E94123EA7EB36
:10235000B3E00E94F337E2E0F4E80E94303C0E94D0
:10236000AA3B83E0E9E4F6E002E00A93A7EBB3E0DE
:102370000E94F3370E940B3EA7EBB3E00E94F337B5
:10238000E2E0F4E80E94303C0E94AA3B85E0E9E4E8
:10239000F6E002E00A93A7EBB3E00E94F3370E9455
:1023A0000B3E81E090E0A2E6B2E08D939C932A98E8
:1023B000709108017460709308010E946C38082FB6
:1023C000003018F011F00C94E7110C94EE110E94FB
:1023D0007838A2E2B2E08C930C94DD1183E10E9484
:1023E000EA3880E090E0ADE1B2E08D939C9380E02C
:1023F00090E0ABE1B2E08D939C93ADE1B2E00D9142
:102400001C91083E53E015070CF402C00C944A12CC
:102410000E946C38082F003018F011F00C94121242
:102420000C943C12ABE1B2E00D911C91003050E0F5
:10243000150711F00C942F120E947838A2E2B2E036
:102440008C9381E090E0ABE1B2E08D939C9380E0CF
:1024500090E0ADE1B2E08D939C930C943C120E940D
:102460007838A3E2B2E08C9382E090E0ABE1B2E096
:102470008D939C930C944A12ADE1B2E00E949F3779
:10248000EF93FF93E0E1F0E00E94123AFF91EF91A9
:102490000C94FD11E4E0F4E80E94303C0E942C38DA
:1024A000EDE1F2E0A4E2BCE10E946F3D0E9424381D
:1024B000E8E0F4E80E94303C0E942C38EBE1F2E0C6
:1024C000A4E2BCE10E946F3D0E9424380E94333890
:1024D000ABE1B2E00D911C91023050E0150711F014
:1024E0000C94BB1281E090E0A4E4B2E08D939C9345
:1024F000A2E2B2E00C9111272227332740E051E0FD
:1025000060E070E00E94873BA5E1B2E00D931D936F
:102510002D933D93A5E1B2E00D911C91A3E2B2E0B1
:102520004D915527040F151FA0E6B2E00D931C93A3
:10253000A0E6B2E00D911C91083057E015070CF4AD
:1025400002C00C94AF12A0E6B2E00D911C91085F9E
:10255000184FA0E6B2E00D931C930C94B912A0E6BC
:10256000B2E00D911C9108501740A0E6B2E00D9327
:102570001C930C94C11280E090E0A4E4B2E08D932F
:102580009C9385E10E94EA3880E090E0ADE1B2E002
:102590008D939C93ADE1B2E00D911C91083E53E008
:1025A00015070CF402C00C94EC120E946C38082F32
:1025B000003018F011F00C94DF120C94E6120E9417
:1025C0007838AEE5B2E08C930C94EC12ADE1B2E059
:1025D0000E949F370C94CA12709108017B7F709300
:1025E00008010895AAE2B4E00D911D9117FB1EF4B5
:1025F0002FEF3FEF02C022273327A8EFB3E04D9122
:102600005D9157FB1EF46FEF7FEF02C066277727BF
:102610000E944E3DA2E0B4E00D931D932D933D9397
:1026200048EF58EF6FEF7FEFA2E0B4E00D911D91FE
:102630002D913C910E94533D0CF402C00C94321336
:10264000A2E0B4E00D911D912D913C9140E15EE03E
:1026500060E070E00E94493DA2E0B4E00D931D935C
:102660002D933D9348E057E060E070E0A2E0B4E0D5
:102670000D911D912D913C910E94533D1CF011F044
:102680000C9444130C945613A2E0B4E00D911D91E8
:102690002D913C9140E15EE060E070E00E944E3D93
:1026A000A2E0B4E00D931D932D933D93A2E0B4E01E
:1026B0000D911D912D913C91AEEFB3E04D915D9147
:1026C0006D917C910E944E3DAAEFB3E00D931D9356
:1026D0002D933D93EEE0F4E80E94303C0E942C38AC
:1026E000E2E0F4E0A4E2BCE10E94693D0E942438EB
:1026F000E2E1F4E80E94303C0E942C38EAEFF3E07B
:10270000A4E2BCE10E94693D0E9424380E94333853
:10271000AAEFB3E00D911D912D913C910E94073AD3
:10272000A2ECB6E00D931D932D933D93A2ECB6E081
:102730000D911D912D913C9144E650E060E070E0D8
:102740000E94873BA2ECB6E00D931D932D933D9321
:1027500080E090E0AEE2B4E08D939C934AE050E0DC
:1027600060E070E0A2E0B4E00D911D912D913C91EC
:102770000E94533D1CF011F00C94C0130C949E1455
:1027800040E050E060E070E0AAEFB3E00D911D91F1
:102790002D913C910E94533D1CF011F00C94D213EA
:1027A0000C944D1481E090E0AEE2B4E08D939C93E4
:1027B000A2E0B4E00D911D912D913C9146E950E0CD
:1027C00060E070E00E94873BABE1B4E00D931D93A5
:1027D0002D933D93ABE1B4E00D911D912D913C9172
:1027E000A2ECB6E04D915D916D917C910E94493DC6
:1027F000ABE1B4E00D931D932D933D93009125041F
:10280000003011F00C941614ABE1B4E00D911D9161
:102810002D913C914CEB52E060E070E00E94493D0C
:10282000ABE1B4E00D931D932D933D9340E757E149
:1028300060E070E0ABE1B4E00D911D912D913C9111
:102840000E94533D1CF011F00C9428140C94321487
:1028500000E717E120E030E0ABE1B4E00D931D9319
:102860002D933C93A0E4B2E00D911C91ABE1B4E058
:102870004D915C91041B150B10938500009384000F
:1028800070910B01746070930B0180E08093810064
:1028900081E0809325040C949E1440E050E060E0B9
:1028A00070E0A2E0B4E00D911D912D913C910E9449
:1028B000533D80E014F009F081E08F9342E350E053
:1028C00060E070E0A2E0B4E00D911D912D913C918B
:1028D0000E94533D80E00CF481E09F91892388237E
:1028E00011F40C949E1446EF5FEF6FEF7FEFAAEFA9
:1028F000B3E00D911D912D913C910E94533D0CF43C
:1029000002C00C949E1482E090E0AEE2B4E08D939D
:102910009C93A0E4B2E00D911C910C5D15401093C6
:1029200085000093840070910B01716070930B011E
:1029300080E08093810080E08093250446EF5FEF84
:102940006FEF7FEFA2E0B4E00D911D912D913C91CE
:102950000E94533D0CF402C00C947B1540E050E003
:1029600060E070E0AAEFB3E00D911D912D913C91D4
:102970000E94533D0CF402C00C943B1583E090E0A0
:10298000AEE2B4E08D939C93A2E0B4E00D911D9172
:102990002D913C910E94073A46E950E060E070E0DA
:1029A0000E94873BABE1B4E00D931D932D933D93C3
:1029B000ABE1B4E00D911D912D913C91A2ECB6E0FC
:1029C0004D915D916D917C910E94493DABE1B4E0E8
:1029D0000D931D932D933D9300912504013011F02B
:1029E0000C940415ABE1B4E00D911D912D913C9137
:1029F0004CEB52E060E070E00E94493DABE1B4E096
:102A00000D931D932D933D9340E757E160E070E0F7
:102A1000ABE1B4E00D911D912D913C910E94533D8D
:102A20001CF011F00C9416150C94201500E717E11A
:102A300020E030E0ABE1B4E00D931D932D933C9387
:102A4000A0E4B2E00D911C91ABE1B4E04D915C913A
:102A5000041B150B109385000093840070910B01EB
:102A6000716070930B0180E08093810080E080931F
:102A700025040C947B154EEC5FEF6FEF7FEFA2E027
:102A8000B4E00D911D912D913C910E94533D80E049
:102A90000CF481E08F9340E050E060E070E0A2E051
:102AA000B4E00D911D912D913C910E94533D80E029
:102AB0000CF481E09F918923882311F40C947B15F9
:102AC00084E090E0AEE2B4E08D939C93A0E4B2E0A9
:102AD0000D911C910C5D15401093850000938400AE
:102AE00070910B01746070930B0180E08093810002
:102AF00081E080932504A2E0B4E00D911D912D9119
:102B00003C91AEEFB3E00D931D932D933C9308954C
:102B1000A6E2B0E00C9106FB81E00EF480E08F931A
:102B2000A0E2B0E00C9105FB81E00EF480E09F9103
:102B3000892B882311F40C94A31582E390E00E9462
:102B4000663A0C9488150E940A398FE711E00E94BA
:102B50001D39E8E1F4E80E94303C0E9403398FEB14
:102B600011E00E941D39EAE2F4E80E94303C0E9424
:102B70000339369B0C94E51500917C00007E109182
:102B80007B00177F026010937B0000937C000E9403
:102B9000B03BADE1B2E08D939C938FEB10E10E94CE
:102BA0001D39EDE1F2E0A4E2BCE10E946F3D0E941C
:102BB000FB38EEE1F3E80E94303C0E94033982E3E7
:102BC00090E00E94663A0C94B91536990C94EE1573
:102BD00082E390E00E94663A0C94E515ADE1B2E024
:102BE0008D919C91A2E6B4E08D939C930E940A394A
:102BF0008FE711E00E941D39EAE3F4E80E94303CBF
:102C00000E9403398FEB11E00E941D39EAE2F4E8DB
:102C10000E94303C0E940339369B0C943816009178
:102C20007C00007E10917B00177F026010937B0078
:102C300000937C000E94B03BADE1B2E08D939C9389
:102C40008FEB10E10E941D39EDE1F2E0A4E2BCE15E
:102C50000E946F3D0E94FB38EEE1F3E80E94303C99
:102C60000E94033982E390E00E94663A0C940C16AD
:102C700036990C94411682E390E00E94663A0C94D7
:102C80003816ADE1B2E08D919C91A4E6B4E08D934D
:102C90009C93A2E6B4E08C91A3E2B2E08C93A2E60E
:102CA000B4E011968C91A2E2B2E08C93E4E1F0E002
:102CB000A3E2B2E091E07BE70E94243EE5E1F0E090
:102CC000A2E2B2E091E07BE70E94243EA4E6B4E0F9
:102CD0008C91A3E2B2E08C93A4E6B4E011968C91BF
:102CE000A2E2B2E08C93E6E1F0E0A3E2B2E091E090
:102CF0007BE70E94243EE7E1F0E0A2E2B2E091E04F
:102D00007BE70E94243EA4E6B4E00D911C91A2E66C
:102D1000B4E04D915C91041B150BADE1B2E00D9355
:102D20001C93ADE1B2E00D911C9142E050E00E9495
:102D3000B337ADE1B2E04D935C93ADE1B2E00D91FC
:102D40001C91A2E6B4E04D915C91040F151FADE11A
:102D5000B2E00D931C93ADE1B2E08D919C91A6E69B
:102D6000B4E08D939C93ADE1B2E08C91A3E2B2E02C
:102D70008C93ADE1B2E011968C91A2E2B2E08C931B
:102D8000E8E1F0E0A3E2B2E091E07BE70E94243EBC
:102D9000E9E1F0E0A2E2B2E091E07BE70E94243EAC
:102DA0000E940A398FE711E00E941D39EAE4F4E835
:102DB0000E94303C0E9403398FEB11E00E941D39C4
:102DC000E0E6F4E80E94303C0E940339369B0C9404
:102DD000EF168AE090E00E94663A0C94E616369967
:102DE0000C94F8168AE090E00E94663A0C94EF1674
:102DF00000917C00007E10917B00177F0260109391
:102E00007B0000937C000E94B03BA1E2B4E08D9374
:102E10009C93A4E6B4E00D911C91A2E6B4E04D9120
:102E20005C91041B150BADE1B2E00D931C93ADE179
:102E3000B2E00D911C9142E050E00E94B337ADE149
:102E4000B2E04D935C93ADE1B2E00D911C91A2E62E
:102E5000B4E04D915C91040F151FADE1B2E00D930C
:102E60001C93ADE1B2E04D915C91A1E2B4E00D9113
:102E70001C91041715070CF402C00C94591782E03A
:102E800080932504EEE6F4E80E94303C0E942C3842
:102E9000E1E2F4E0A4E2BCE10E946F3D0E9424382C
:102EA0000E94333870910B01716070930B010C9488
:102EB000711781E080932504E8E9F4E80E94303C32
:102EC0000E942C38E1E2F4E0A4E2BCE10E946F3DF4
:102ED0000E9424380E94333870910B017460709303
:102EE0000B01E2ECF4E80E94303C0E942C380E9476
:102EF000333881E090E0ADE1B2E08D939C93ADE199
:102F0000B2E00D911C91043650E015071CF011F051
:102F10000C9494178AE090E00E94663AADE1B2E02A
:102F20000E949F370C947F170E94333870910B01D9
:102F30007E7F70930B0170910B017B7F70930B016F
:102F400081E090E0ADE1B2E08D939C93ADE1B2E021
:102F50000D911C91083C50E015071CF011F00C94E9
:102F6000FB1700917C00007E10917B00177F0260B0
:102F700010937B0000937C000E94B03BA1E2B4E080
:102F80008D939C93ADE1B2E00D911D9117FB1EF462
:102F90002FEF3FEF02C02227332745E050E060E0EB
:102FA00070E00E94873BA5E1B2E00D931D932D9345
:102FB0003D93E5E1F2E0A4E2BCE10E94693D0E949C
:102FC0002438E0E0F4E80E94303C0E942C38E1E232
:102FD000F4E0A4E2BCE10E946F3D0E9424380E940C
:102FE000333884E090E00E94663AADE1B2E00E949E
:102FF0009F370C94A6170E940A398FE711E00E94B0
:103000001D39EAECF4E80E94303C0E9403398FEB52
:1030100011E00E941D39E8EDF4E80E94303C0E9466
:103020000339369B0C941A188AE090E00E94663AA5
:103030000C94111836990C9423188AE090E00E94A1
:10304000663A0C941A1800912504013011F00C9482
:10305000431882E080932504EEE6F4E80E94303CB9
:103060000E942C38E1E2F4E0A4E2BCE10E946F3D52
:103070000E9424380E94333870910B017160709364
:103080000B010C945B1881E080932504E8E9F4E8D7
:103090000E94303C0E942C38E1E2F4E0A4E2BCE162
:1030A0000E946F3D0E9424380E94333870910B01BA
:1030B000746070930B01E1E0F0E00E942D39709193
:1030C0000B017E7F70930B0170910B017B7F7093DE
:1030D0000B0181E090E0ADE1B2E08D939C93ADE116
:1030E000B2E00D911C91083C50E015071CF011F066
:1030F0000C94C41800917C00007E10917B00177F17
:10310000026010937B0000937C000E94B03BA1E220
:10311000B4E08D939C93ADE1B2E00D911D9117FB4E
:103120001EF42FEF3FEF02C02227332745E050E087
:1031300060E070E00E94873BA5E1B2E00D931D9333
:103140002D933D93E5E1F2E0A4E2BCE10E94693DEC
:103150000E942438E0E0F4E80E94303C0E942C38C1
:10316000E1E2F4E0A4E2BCE10E946F3D0E94243859
:103170000E94333884E090E00E94663AADE1B2E00C
:103180000E949F370C946F180E940A398FE711E054
:103190000E941D39EAECF4E80E94303C0E94033999
:1031A0008FEB11E00E941D39E8EDF4E80E94303CFD
:1031B0000E940339369B0C94E3188AE090E00E9449
:1031C000663A0C94DA1836990C94EC188AE090E080
:1031D0000E94663A0C94E31800917C00007E1091E6
:1031E0007B00177F026010937B0000937C000E949D
:1031F000B03BA1E2B4E08D939C93E6EEF4E80E942C
:10320000303C0E942C38E1E2F4E0A4E2BCE10E94F0
:103210006F3D0E9424380E9433380091250401300C
:1032200011F00C942A19E6EFF4E80E94303C0E9459
:103230002C38E1E2F4E0A4E2BCE10E946F3D0E9480
:1032400024380E94333870910B01746070930B0125
:103250000C943F19EAE1F5E80E94303C0E942C38BA
:10326000E1E2F4E0A4E2BCE10E946F3D0E94243858
:103270000E94333870910B01716070930B0181E0F3
:1032800090E0ADE1B2E08D939C93ADE1B2E00D91A1
:103290001C91043650E015071CF011F00C9496199F
:1032A00000917C00007E10917B00177F02601093DC
:1032B0007B0000937C000E94B03BA1E2B4E08D93C0
:1032C0009C93ADE1B2E00D911D9117FB1EF42FEF21
:1032D0003FEF02C02227332745E050E060E070E076
:1032E0000E94873BA5E1B2E00D931D932D933D9382
:1032F000E5E1F2E0A4E2BCE10E94693D0E942438CD
:10330000E0E0F4E80E94303C0E942C38E1E2F4E076
:10331000A4E2BCE10E946F3D0E9424380E94333831
:10332000ADE1B2E00E949F370C94451970910B01FA
:103330007B7F70930B0170910B017E7F70930B016B
:103340000E940A398FE711E00E941D39EAECF4E887
:103350000E94303C0E9403398FEB11E00E941D391E
:10336000E8EDF4E80E94303C0E940339369B0C944F
:10337000BF198AE090E00E94663A0C94B61936991B
:103380000C94C8198AE090E00E94663A0C94BF1928
:1033900000917C00007E10917B00177F02601093EB
:1033A0007B0000937C000E94B03BA1E2B4E08D93CF
:1033B0009C93ECE3F5E80E94303C0E942C38E1E25B
:1033C000F4E0A4E2BCE10E946F3D0E9424380E9418
:1033D000333800912504013011F00C94F6197091E6
:1033E0000B01716070930B010C94FB1970910B0130
:1033F000746070930B0181E090E0ADE1B2E08D93D9
:103400009C93ADE1B2E00D911C91043650E015079C
:103410001CF011F00C94521A00917C00007E109167
:103420007B00177F026010937B0000937C000E945A
:10343000B03BA1E2B4E08D939C93ADE1B2E00D917D
:103440001D9117FB1EF42FEF3FEF02C022273327F9
:1034500042E050E060E070E00E94873BA5E1B2E00E
:103460000D931D932D933D93E5E1F2E0A4E2BCE1C1
:103470000E94693D0E942438E0E0F4E80E94303C5C
:103480000E942C38E1E2F4E0A4E2BCE10E946F3D2E
:103490000E9424380E943338ADE1B2E00E949F3789
:1034A0000C94011A70910B017B7F70930B0170914A
:1034B0000B017E7F70930B010E940A39E6E5F5E867
:1034C0000E94303C0E940339EDE1F2E0A4E2BCE14D
:1034D0000E946F3D0E94FB388FEB11E00E941D3966
:1034E000E2E6F5E80E94303C0E940339369B0C94DA
:1034F0007F1A8AE090E00E94663A0C94761A369918
:103500000C94881A8AE090E00E94663A0C947F1A24
:103510000C94CD073FBE80E090E0A6ECB6E08D9322
:103520009C933FB6F894D201E2E7F5E80E94303C64
:103530000E94AA3B85E10E94773B81E0D2018C93F7
:1035400081E00E94773B0E94661D249686E10E94DE
:10355000733B3FB6F894A0E1B0E0BA93AA93D201CE
:10356000E0ECF2E80E94303C0E94AA3B85E10E9418
:10357000773B00E117E220E030E0D2010D931D938C
:103580002D933C9384E00E94773B0E94E31C269697
:1035900089E10E94733B003011F00C94D11A0C9415
:1035A000DD1C3FB6F894D201ECE7F5E80E94303C10
:1035B0000E94AA3B85E10E94773B80E0D2018C9378
:1035C00081E00E94773B0E94661D249686E10E945E
:1035D000733B82E20E94403AA881B9810C9101308C
:1035E00011F00C940D1B3FB6F894D201E6E8F5E813
:1035F0000E94303C0E94AA3B85E10E94773B80E01C
:10360000D2018C9381E00E94773B0E94661D249634
:1036100086E10E94733B0C94251B3FB6F894D201BF
:10362000E0E9F5E80E94303C0E94AA3B85E10E9457
:10363000773B80E0D2018C9381E00E94773B0E942F
:10364000661D249686E10E94733B82E20E94403A06
:103650008DE00E94403A3FB6F894A0E1B0E0BA9302
:10366000AA93D201EAE9F5E80E94303C0E94AA3B05
:1036700085E10E94773B00E117E220E030E0D201D3
:103680000D931D932D933C9384E00E94773B0E9401
:10369000E31C269689E10E94733B003011F00C94E4
:1036A000531B0C94DD1C8AE090E00E94663A3FB602
:1036B000F894D201ECE9F5E80E94303C0E94AA3B64
:1036C00085E10E94773B81E0D2018C9381E00E94EA
:1036D000773B0E94661D249686E10E94733B3FB6AD
:1036E000F894EA81FB81D2010E94F33D85E10E94BA
:1036F000773B81E0D2018C9381E00E94773B0E946E
:10370000661D249686E10E94733BAAEEB3E00D91FC
:103710001C91013050E0150781E009F080E08F93A3
:10372000ACEEB3E00D911C91003050E0150781E044
:1037300009F080E09F918923882311F40C94B81B31
:103740003FB6F894D201E0EBF5E80E94303C0E94CD
:10375000AA3B85E10E94773B81E0D2018C9381E016
:103760000E94773B0E94661D249686E10E94733B6F
:10377000A8EEB3E00D911C91013050E0150781E0F7
:1037800009F080E08F93AEEEB3E00D911C91003014
:1037900050E0150781E009F080E09F91892388239C
:1037A00011F40C94EB1B3FB6F894D201EAEBF5E868
:1037B0000E94303C0E94AA3B85E10E94773B81E059
:1037C000D2018C9381E00E94773B0E94661D249673
:1037D00086E10E94733BA6EEB3E00D911C9101308F
:1037E00050E0150781E009F080E08F93A0EFB3E08F
:1037F0000D911C91003050E0150781E009F080E048
:103800009F918923882311F40C941E1C3FB6F894D1
:10381000D201ECECF5E80E94303C0E94AA3B85E125
:103820000E94773B81E0D2018C9381E00E94773B3C
:103830000E94661D249686E10E94733BE0EEF5E847
:103840000E94303C0E94503A0E94573A3FB6F8948A
:10385000D201E2EEF5E80E94303C0E94AA3B85E1ED
:103860000E94773B80E0D2018C9381E00E94773BFD
:103870000E94661D249686E10E94733B00917C00A5
:10388000007E10917B00177F016010937B000093F6
:103890007C000E94B03BADE1B2E08D939C93EEEED4
:1038A000F1E80E94303C0E94BA3FEDE1F2E0D19095
:1038B000E0808FEFE7FE8827F82E082F0E94EB3E6E
:1038C0000E94233FEDE0F0E0A8E0B2E00E94F83D66
:1038D0003FB6F894A4E2BCE1AF93BF93E8E0F2E016
:1038E0000E948D3E0E94753A11E002E0BF91AF91B7
:1038F0000E94013DE4E2FCE1D2010E94F33D85E13A
:103900000E94773B80E0D2018C9381E00E94773B5C
:103910000E94661D249686E10E94733B3FB6F89490
:10392000D201E0EFF5E80E94303C0E94AA3B85E11D
:103930000E94773B81E0D2018C9381E00E94773B2B
:103940000E94661D249686E10E94733B8AE090E007
:103950000E94663A8AE10E94403A3FB6F894A0E19C
:10396000B0E0BA93AA93D201E0ECF2E80E94303CB6
:103970000E94AA3B85E10E94773B00E412E42FE01D
:1039800030E0D2010D931D932D933C9384E00E946F
:10399000773B0E94E31C269689E10E94733B00302E
:1039A00011F00C94D71C0C94DD1C0C94DD1C81E0F0
:1039B00090E0A6ECB6E08D939C938091C606AC8116
:1039C000BD818C9308953FBE80E090E0A6ECB6E008
:1039D0008D939C93A0EFB2E088278C9300E010E0D9
:1039E00020E030E0ADE0B2E00D931D932D933C93C9
:1039F00000E010E020E030E0A1E1B2E00D931D9383
:103A00002D933C93A0EFB2E0EA81FB81222791E065
:103A10000E94CC3B003081E009F080E08F93A881C8
:103A2000B9814D915D916D917C91ADE0B2E00D91C8
:103A30001D912D913C910E94533D80E00CF481E05A
:103A40009F918923882311F40C94341DEF93FF93E5
:103A5000E4E2F0E00E94123AFF91EF91ADE0B2E0B3
:103A60000E9492370C94021DA881B9814D915D91FD
:103A70006D917C91ADE0B2E00D911D912D913C9145
:103A80000E94533D0CF402C00C944C1D81E090E068
:103A9000A6ECB6E08D939C93A0EFB2E00E9426388E
:103AA000E2EFF5E80E94303C0E942C38EDE0F2E0B5
:103AB000A4E2BCE10E94693D0E9424380E94333890
:103AC0008091C606AC81BD818C9308953FBE81E094
:103AD00090E00E94663A81E090E0A9E1B2E08D9327
:103AE0009C93AA81BB810E943C3E482F5527A9E1A7
:103AF000B2E00D911C91041715071CF011F00C9405
:103B00009D1D80911902EA81FB8101E00A93A0EDDD
:103B1000B3E00E940B3EA0EDB3E00E945D3AEF934C
:103B2000FF93ECE8F1E00E94123AFF91EF91A9E1D6
:103B3000B2E00E949F370C94711DEF93FF93ECE865
:103B4000F1E00E94123AFF91EF91A881B9810C91A6
:103B5000013011F00C94AF1D8DE00E94403A0895A1
:103B6000289AA4EFB5E088278C930E949C38082FF0
:103B7000003018F011F00C94BF1D0C94FB1D0E9436
:103B8000A238AFE3B2E08C9300913F020A3081E0AB
:103B900009F080E08F9300913F020D3081E009F041
:103BA00080E09F91892B882311F40C94E11D0091F2
:103BB0003F020A3011F00C94DF1D0C94FB1D0C9495
:103BC000F11DAFE3B2E08C91A0EDB3E08D938827B7
:103BD0008C93E0EDF3E0A4EFB5E00E94F3370E9490
:103BE000F33DEF93FF93ECE3F6E00E94123AFF916E
:103BF000EF910C94B51DE4EFF5E0A4EFB5E00E9461
:103C0000093EE8EFF5E80E94303C0E942C38A4EF12
:103C1000B5E00E942638E0E0F4E80E94303C0E94C3
:103C20002C38A4EFB5E00E943C3E082FE0E1F0E024
:103C3000A4E2BCE10E94763D0E9424380E94333801
:103C4000A4EFB5E00E943C3E082F033018F011F0BD
:103C50000C942C1E0C946C2784E30E94773BE4EFB9
:103C6000F5E001E0A881B9810E94123EA881B981E6
:103C7000EAEFF2E80E94303C0E94423E0FB684E335
:103C8000481A80E0580A22960FBE11F00C94A41F27
:103C9000A4EFB5E0E4E0F6E80E94303C0E94423E2A
:103CA00011F00C94591E2E9A80E080935C030C94C2
:103CB000A21FA4EFB5E0EAE0F6E80E94303C0E94C3
:103CC000423E11F00C946A1E2F9A80E080935C03B0
:103CD0000C94A21FA4EFB5E0E0E1F6E80E94303CAE
:103CE0000E94423E11F00C947C1E2E9A2F9A80E086
:103CF00080935C030C94A21FA4EFB5E0E6E1F6E824
:103D00000E94303C0E94423E11F00C94A91EA4E394
:103D1000B4E00D911C91013050E0150711F00C94A6
:103D2000991E80E090E0A4E3B4E08D939C930C9402
:103D3000A71E81E090E0A4E3B4E08D939C93A0E6FD
:103D4000B2E08D919C91A8EFB3E08D939C930C947D
:103D5000A21F84E30E94773BE4EFF5E007E0A8812F
:103D6000B9810E94123EA881B981ECE1F6E80E9477
:103D7000303C0E94423E0FB684E3481A80E0580A65
:103D800022960FBE11F00C942C1FA4EFB5E00E94F8
:103D90003C3EADE1B2E08D9388278C93ADE1B2E07B
:103DA0000D911C9107501040ADE1B2E00D931C93B2
:103DB000A4EFB5E00E943C3EEA2FFB2F00911D02CC
:103DC0003197E01BF0400FEFA8E2B2E00E94123EF4
:103DD000A8E2B2E00E94BC3DADE1B2E00D931C93BD
:103DE000A8EFB3E00D911C91ADE1B2E04D915C9173
:103DF000040F151FA8EFB3E00D931C93A8EFB3E0D9
:103E00000D911C91073651E015071CF011F00C9430
:103E10000B1F0C94151FA8EFB3E00D911C910856D1
:103E20001140A8EFB3E00D931C93A8EFB3E00D9100
:103E30001C91003050E015070CF402C00C942A1FAE
:103E4000A8EFB3E00D911C9108591E4FA8EFB3E005
:103E50000D931C930C94A21F84E30E94773BE4EF24
:103E6000F5E00AE0A881B9810E94123EA881B981DB
:103E7000E4E2F6E80E94303C0E94423E0FB684E342
:103E8000481A80E0580A22960FBE11F00C945E1F6B
:103E9000A4EFB5E00E943C3EEA2FFB2F34970FEFD2
:103EA000A8E2B2E00E94123EA8E2B2E00E94BC3D4D
:103EB000A8EFB3E00D931C930C94A21F84E30E941F
:103EC000773BE4EFF5E00BE0A881B9810E94123E58
:103ED000A881B981E0E3F6E80E94303C0E94423EAE
:103EE0000FB684E3481A80E0580A22960FBE11F0FC
:103EF0000C94A21FA4EFB5E00E943C3EEA2FFB2FDA
:103F00003C970FEFA8E2B2E00E94123EA8E2B2E0B6
:103F10000E94BC3DA2E8B3E00D931D932D933D9309
:103F2000A2E8B3E00D911D912D913C9148EE53E034
:103F300060E070E00E94873BA2E8B3E00D931D9320
:103F40002D933D930C946C2784E30E94773BE4EF20
:103F5000F5E001E0A881B9810E94123EA881B981F3
:103F6000E0EFF5E80E94303C0E94423E0FB684E349
:103F7000481A80E0580A22960FBE11F00C94D623FE
:103F800084E30E94773BE4EFF5E00AE0A881B98181
:103F90000E94123EA881B981ECE3F6E80E94303C11
:103FA0000E94423E0FB684E3481A80E0580A2296E7
:103FB0000FBE11F00C94FA1F3FB6F8948AE0D201BC
:103FC0008C9381E00E94773B84E1D2018C9381E065
:103FD0000E94773B0E948B2C249682E00E94733BC8
:103FE000A9E1B2E08D919C91A2E6B4E08D939C93FF
:103FF0000C94CA2384E30E94773BE4EFF5E00AE0E7
:10400000A881B9810E94123EA881B981E8E4F6E84E
:104010000E94303C0E94423E0FB684E3481A80E082
:10402000580A22960FBE11F00C9434203FB6F89433
:104030008AE0D2018C9381E00E94773B86E1D20135
:104040008C9381E00E94773B0E948B2C249682E027
:104050000E94733BA9E1B2E08D919C91A4E6B4E08B
:104060008D939C930C94CA2384E30E94773BE4EFE6
:10407000F5E00DE0A881B9810E94123EA881B981C6
:10408000E4E5F6E80E94303C0E94423E0FB684E32D
:10409000481A80E0580A22960FBE11F00C946E2048
:1040A0003FB6F8948DE0D2018C9381E00E94773B7B
:1040B00088E1D2018C9381E00E94773B0E948B2C97
:1040C000249682E00E94733BA9E1B2E08D919C911D
:1040D000A6E6B4E08D939C930C94CA2384E30E94DB
:1040E000773BE4EFF5E005E0A881B9810E94123E3C
:1040F000A881B981E2E6F6E80E94303C0E94423E87
:104100000FB684E3481A80E0580A22960FBE11F0D9
:104110000C94A8203FB6F89485E0D2018C9381E0FE
:104120000E94773B8AE1D2018C9381E00E94773B29
:104130000E948B2C249682E00E94733BA9E1B2E09E
:104140008D919C91A9E6B4E08D939C930C94CA2325
:1041500084E30E94773BE4EFF5E005E0A881B981B4
:104160000E94123EA881B981E8E6F6E80E94303C40
:104170000E94423E0FB684E3481A80E0580A229615
:104180000FBE11F00C94E2203FB6F89485E0D20106
:104190008C9381E00E94773B8CE1D2018C9381E08B
:1041A0000E94773B0E948B2C249682E00E94733BF6
:1041B000A9E1B2E08D919C91ABE6B4E08D939C9324
:1041C0000C94CA2384E30E94773BE4EFF5E004E01B
:1041D000A881B9810E94123EA881B981EEE6F6E875
:1041E0000E94303C0E94423E0FB684E3481A80E0B1
:1041F000580A22960FBE11F00C941C213FB6F89479
:1042000084E0D2018C9381E00E94773B8EE1D20161
:104210008C9381E00E94773B0E948B2C249682E055
:104220000E94733BA9E1B2E08D919C91ADE6B4E0B0
:104230008D939C930C94CA2384E30E94773BE4EF14
:10424000F5E003E0A881B9810E94123EA881B981FE
:10425000E4E7F6E80E94303C0E94423E0FB684E359
:10426000481A80E0580A22960FBE11F00C9456218D
:104270003FB6F89483E0D2018C9381E00E94773BB3
:1042800080E2D2018C9381E00E94773B0E948B2CCC
:10429000249682E00E94733BA9E1B2E08D919C914B
:1042A000AFE6B4E08D939C930C94CA2384E30E9400
:1042B000773BE4EFF5E006E0A881B9810E94123E69
:1042C000A881B981E8E7F6E80E94303C0E94423EAE
:1042D0000FB684E3481A80E0580A22960FBE11F008
:1042E0000C9490213FB6F89486E0D2018C9381E043
:1042F0000E94773B82E2D2018C9381E00E94773B5F
:104300000E948B2C249682E00E94733BA9E1B2E0CC
:104310008D919C91A3E7B4E08D939C930C94CA2358
:1043200084E30E94773BE4EFF5E006E0A881B981E1
:104330000E94123EA881B981E0E8F6E80E94303C74
:104340000E94423E0FB684E3481A80E0580A229643
:104350000FBE11F00C94CA213FB6F89486E0D2014A
:104360008C9381E00E94773B84E2D2018C9381E0C0
:104370000E94773B0E948B2C249682E00E94733B24
:10438000A9E1B2E08D919C91A1E7B4E08D939C935B
:104390000C94CA2384E30E94773BE4EFF5E006E047
:1043A000A881B9810E94123EA881B981E8E8F6E8A7
:1043B0000E94303C0E94423E0FB684E3481A80E0DF
:1043C000580A22960FBE11F00C9404223FB6F894BE
:1043D00086E0D2018C9381E00E94773B86E2D20195
:1043E0008C9381E00E94773B0E948B2C249682E084
:1043F0000E94733BA9E1B2E08D919C91A5E7B4E0E6
:104400008D939C930C94CA2384E30E94773BE4EF42
:10441000F5E004E0A881B9810E94123EA881B9812B
:10442000E0E9F6E80E94303C0E94423E0FB684E389
:10443000481A80E0580A22960FBE11F00C943E22D2
:104440003FB6F89484E0D2018C9381E00E94773BE0
:1044500088E2D2018C9381E00E94773B0E948B2CF2
:10446000249682E00E94733BA9E1B2E08D919C9179
:10447000A7E7B4E08D939C930C94CA2384E30E9435
:10448000773BE4EFF5E004E0A881B9810E94123E99
:10449000A881B981E6E9F6E80E94303C0E94423EDC
:1044A0000FB684E3481A80E0580A22960FBE11F036
:1044B0000C9478223FB6F89484E0D2018C9381E08A
:1044C0000E94773B8AE2D2018C9381E00E94773B85
:1044D0000E948B2C249682E00E94733BA9E1B2E0FB
:1044E0008D919C91A9E7B4E08D939C930C94CA2381
:1044F00084E30E94773BE4EFF5E004E0A881B98112
:104500000E94123EA881B981ECE9F6E80E94303C95
:104510000E94423E0FB684E3481A80E0580A229671
:104520000FBE11F00C94B2223FB6F89484E0D20191
:104530008C9381E00E94773B8CE2D2018C9381E0E6
:104540000E94773B0E948B2C249682E00E94733B52
:10455000A9E1B2E08D919C91ABE7B4E08D939C937F
:104560000C94CA2384E30E94773BE4EFF5E004E077
:10457000A881B9810E94123EA881B981E2EAF6E8D9
:104580000E94303C0E94423E0FB684E3481A80E00D
:10459000580A22960FBE11F00C94EC223FB6F89404
:1045A00084E0D2018C9381E00E94773B8EE2D201BD
:1045B0008C9381E00E94773B0E948B2C249682E0B2
:1045C0000E94733BA9E1B2E08D919C91ADE7B4E00C
:1045D0008D939C930C94CA2384E30E94773BE4EF71
:1045E000F5E004E0A881B9810E94123EA881B9815A
:1045F000E8EAF6E80E94303C0E94423E0FB684E3AF
:10460000481A80E0580A22960FBE11F00C94262317
:104610003FB6F89484E0D2018C9381E00E94773B0E
:1046200080E3D2018C9381E00E94773B0E948B2C27
:10463000249682E00E94733BA9E1B2E08D919C91A7
:10464000AFE7B4E08D939C930C94CA2384E30E945B
:10465000773BE4EFF5E004E0A881B9810E94123EC7
:10466000A881B981EEEAF6E80E94303C0E94423E01
:104670000FB684E3481A80E0580A22960FBE11F064
:104680000C945C233FB6F89484E0D2018C9381E0D3
:104690000E94773B86E3D2018C9381E00E94773BB6
:1046A0000E948B2C249682E00E94733B8091190219
:1046B000809385040C94CA2384E30E94773BE4EF43
:1046C000F5E004E0A881B9810E94123EA881B98179
:1046D000E4EBF6E80E94303C0E94423E0FB684E3D1
:1046E000481A80E0580A22960FBE11F00C949223CB
:1046F0003FB6F89484E0D2018C9381E00E94773B2E
:1047000088E3D2018C9381E00E94773B0E948B2C3E
:10471000249682E00E94733B809119028093860464
:104720000C94CA2384E30E94773BE4EFF5E005E0B4
:10473000A881B9810E94123EA881B981EAEBF6E80E
:104740000E94303C0E94423E0FB684E3481A80E04B
:10475000580A22960FBE11F00C94CA233FB6F89463
:1047600085E0D2018C9381E00E94773B88E5D201FD
:104770008C9381E00E94773B0E948B2C249682E0F0
:104780000E94733BA9E1B2E08D919C91A7E8B4E04F
:104790008D939C93E0ECF6E80E94303C0E942C380C
:1047A0000E9433380E946E270C946C2784E30E9489
:1047B000773BE4EFF5E001E0A881B9810E94123E69
:1047C000A881B981E4EDF6E80E94303C0E94423EA7
:1047D0000FB684E3481A80E0580A22960FBE11F003
:1047E0000C946C2784E30E94773BE4EFF5E009E04A
:1047F000A881B9810E94123EA881B981E6EDF6E850
:104800000E94303C0E94423E0FB684E3481A80E08A
:10481000580A22960FBE11F00C942C243FB6F8943F
:1048200089E0D2018C9381E00E94773B8AE3D20138
:104830008C9381E00E94773B0E948B2C249682E02F
:104840000E94733BA9E1B2E08D919C91A9E9B3E08C
:104850008D939C930C946A2784E30E94773BE4EF4A
:10486000F5E009E0A881B9810E94123EA881B981D2
:10487000E0EEF6E80E94303C0E94423E0FB684E330
:10488000481A80E0580A22960FBE11F00C94662454
:104890003FB6F89489E0D2018C9381E00E94773B87
:1048A0008CE3D2018C9381E00E94773B0E948B2C99
:1048B000249682E00E94733BA9E1B2E08D919C9125
:1048C000ABE9B3E08D939C930C946A2784E30E9438
:1048D000773BE4EFF5E00AE0A881B9810E94123E3F
:1048E000A881B981EAEEF6E80E94303C0E94423E7F
:1048F0000FB684E3481A80E0580A22960FBE11F0E2
:104900000C94A0243FB6F8948AE0D2018C9381E005
:104910000E94773B8EE3D2018C9381E00E94773B2B
:104920000E948B2C249682E00E94733BA9E1B2E0A6
:104930008D919C91ADE9B3E08D939C930C946A2783
:1049400084E30E94773BE4EFF5E001E1A881B981BF
:104950000E94123EA881B981E6EFF6E80E94303C41
:104960000E94423E0FB684E3481A80E0580A22961D
:104970000FBE11F00C94DA243FB6F89481E1D20115
:104980008C9381E00E94773B80E4D2018C9381E09C
:104990000E94773B0E948B2C249682E00E94733BFE
:1049A000A9E1B2E08D919C91AFE9B3E08D939C9326
:1049B0000C946A2784E30E94773BE4EFF5E001E181
:1049C000A881B9810E94123EA881B981E8E0F7E888
:1049D0000E94303C0E94423E0FB684E3481A80E0B9
:1049E000580A22960FBE11F00C9414253FB6F89485
:1049F00081E1D2018C9381E00E94773B82E4D20175
:104A00008C9381E00E94773B0E948B2C249682E05D
:104A10000E94733BA9E1B2E08D919C91A1EAB3E0C1
:104A20008D939C930C946A2784E30E94773BE4EF78
:104A3000F5E008E0A881B9810E94123EA881B98101
:104A4000EAE1F7E80E94303C0E94423E0FB684E360
:104A5000481A80E0580A22960FBE11F00C944E2599
:104A60003FB6F89488E0D2018C9381E00E94773BB6
:104A700084E4D2018C9381E00E94773B0E948B2CCE
:104A8000249682E00E94733BA9E1B2E08D919C9153
:104A9000A3EAB3E08D939C930C946A2784E30E946D
:104AA000773BE4EFF5E008E0A881B9810E94123E6F
:104AB000A881B981E4E2F7E80E94303C0E94423EBE
:104AC0000FB684E3481A80E0580A22960FBE11F010
:104AD0000C9488253FB6F89488E0D2018C9381E04D
:104AE0000E94773B86E4D2018C9381E00E94773B61
:104AF0000E948B2C249682E00E94733BA9E1B2E0D5
:104B00008D919C91A5EAB3E08D939C930C946A27B8
:104B100084E30E94773BE4EFF5E009E0A881B981E6
:104B20000E94123EA881B981EEE2F7E80E94303C73
:104B30000E94423E0FB684E3481A80E0580A22964B
:104B40000FBE11F00C94C2253FB6F89489E0D20153
:104B50008C9381E00E94773B88E4D2018C9381E0C2
:104B60000E94773B0E948B2C249682E00E94733B2C
:104B7000A9E1B2E08D919C91A7EAB3E08D939C935B
:104B80000C946A2784E30E94773BE4EFF5E000E1B0
:104B9000A881B9810E94123EA881B981E8E3F7E8B3
:104BA0000E94303C0E94423E0FB684E3481A80E0E7
:104BB000580A22960FBE11F00C94FC253FB6F894CB
:104BC00080E1D2018C9381E00E94773B8AE4D2019C
:104BD0008C9381E00E94773B0E948B2C249682E08C
:104BE0000E94733BA9E1B2E08D919C91A9EAB3E0E8
:104BF0008D939C930C946A2784E30E94773BE4EFA7
:104C0000F5E000E1A881B9810E94123EA881B98136
:104C1000EAE4F7E80E94303C0E94423E0FB684E38B
:104C2000481A80E0580A22960FBE11F00C943626DE
:104C30003FB6F89480E1D2018C9381E00E94773BEB
:104C40008CE4D2018C9381E00E94773B0E948B2CF4
:104C5000249682E00E94733BA9E1B2E08D919C9181
:104C6000ABEAB3E08D939C930C946A2784E30E9493
:104C7000773BE4EFF5E007E0A881B9810E94123E9E
:104C8000A881B981ECE5F7E80E94303C0E94423EE1
:104C90000FB684E3481A80E0580A22960FBE11F03E
:104CA0000C9470263FB6F89487E0D2018C9381E093
:104CB0000E94773B8EE4D2018C9381E00E94773B87
:104CC0000E948B2C249682E00E94733BA9E1B2E003
:104CD0008D919C91ADEAB3E08D939C930C946A27DF
:104CE00084E30E94773BE4EFF5E008E0A881B98116
:104CF0000E94123EA881B981E4E6F7E80E94303CA8
:104D00000E94423E0FB684E3481A80E0580A229679
:104D10000FBE11F00C94AA263FB6F89488E0D20199
:104D20008C9381E00E94773B80E5D2018C9381E0F7
:104D30000E94773B0E948B2C249682E00E94733B5A
:104D4000A9E1B2E08D919C91AFEAB3E08D939C9381
:104D50000C946A2784E30E94773BE4EFF5E00AE0D5
:104D6000A881B9810E94123EA881B981EEE6F7E8D8
:104D70000E94303C0E94423E0FB684E3481A80E015
:104D8000580A22960FBE11F00C94E4263FB6F89410
:104D90008AE0D2018C9381E00E94773B82E5D201C8
:104DA0008C9381E00E94773B0E948B2C249682E0BA
:104DB0000E94733BA9E1B2E08D919C91A1EBB3E01D
:104DC0008D939C930C946A2784E30E94773BE4EFD5
:104DD000F5E00AE0A881B9810E94123EA881B9815C
:104DE000EAE7F7E80E94303C0E94423E0FB684E3B7
:104DF000481A80E0580A22960FBE11F00C941E2724
:104E00003FB6F8948AE0D2018C9381E00E94773B10
:104E100084E5D2018C9381E00E94773B0E948B2C29
:104E2000249682E00E94733BA9E1B2E08D919C91AF
:104E3000A3EBB3E08D939C930C946A2784E30E94C8
:104E4000773BE4EFF5E00BE0A881B9810E94123EC8
:104E5000A881B981E6E8F7E80E94303C0E94423E12
:104E60000FB684E3481A80E0580A22960FBE11F06C
:104E70000C946A273FB6F8948BE0D2018C9381E0C2
:104E80000E94773B86E5D2018C9381E00E94773BBC
:104E90000E948B2C249682E00E94733BA9E1B2E031
:104EA0008D919C91A6E8B3E08D939C930E94623B08
:104EB000A6E8B3E00D911D912D913C9148EE53E091
:104EC00060E070E00E94873BA6E8B3E00D931D937D
:104ED0002D933D930E946D2828980895E0EFF5E802
:104EE0000E94303C0E94DC38E2E6F4E0A4E2BCE13F
:104EF0000E946F3D0E94D438E2E9F7E80E94303CFE
:104F00000E94DC38E4E6F4E0A4E2BCE10E946F3DDC
:104F10000E94D438E2E9F7E80E94303C0E94DC3875
:104F2000E6E6F4E0A4E2BCE10E946F3D0E94D438C2
:104F3000E2E9F7E80E94303C0E94DC38E9E6F4E060
:104F4000A4E2BCE10E946F3D0E94D438E2E9F7E898
:104F50000E94303C0E94DC38EBE6F4E0A4E2BCE1C5
:104F60000E946F3D0E94D438E2E9F7E80E94303C8D
:104F70000E94DC38EDE6F4E0A4E2BCE10E946F3D63
:104F80000E94D438E2E9F7E80E94303C0E94DC3805
:104F9000EFE6F4E0A4E2BCE10E946F3D0E94D43849
:104FA000E2E9F7E80E94303C0E94DC38E3E7F4E0F5
:104FB000A4E2BCE10E946F3D0E94D438E2E9F7E828
:104FC0000E94303C0E94DC38E1E7F4E0A4E2BCE15E
:104FD0000E946F3D0E94D438E2E9F7E80E94303C1D
:104FE0000E94DC38E5E7F4E0A4E2BCE10E946F3DFA
:104FF0000E94D438E2E9F7E80E94303C0E94DC3895
:10500000E7E7F4E0A4E2BCE10E946F3D0E94D438DF
:10501000E2E9F7E80E94303C0E94DC38E9E7F4E07E
:10502000A4E2BCE10E946F3D0E94D438E2E9F7E8B7
:105030000E94303C0E94DC38EBE7F4E0A4E2BCE1E3
:105040000E946F3D0E94D438E2E9F7E80E94303CAC
:105050000E94DC38EDE7F4E0A4E2BCE10E946F3D81
:105060000E94D438E2E9F7E80E94303C0E94DC3824
:10507000EFE7F4E0A4E2BCE10E946F3D0E94D43867
:10508000E2E9F7E80E94303C0E94DC38E5E8F4E011
:10509000A4E2BCE10E94763D0E94D438E2E9F7E840
:1050A0000E94303C0E94DC38E6E8F4E0A4E2BCE177
:1050B0000E94763D0E94D438E2E9F7E80E94303C35
:1050C0000E94DC38E7E8F4E0A4E2BCE10E946F3D16
:1050D0000E94D4380E94F1380895E4EDF6E80E9469
:1050E000303C0E94DC38E9E9F3E0A4E2BCE10E9434
:1050F0006F3D0E94D438E2E9F7E80E94303C0E94FC
:10510000DC38EBE9F3E0A4E2BCE10E946F3D0E94D1
:10511000D438E2E9F7E80E94303C0E94DC38EDE93F
:10512000F3E0A4E2BCE10E946F3D0E94D438E2E9C2
:10513000F7E80E94303C0E94DC38EFE9F3E0A4E29B
:10514000BCE10E946F3D0E94D438E2E9F7E80E947A
:10515000303C0E94DC38E1EAF3E0A4E2BCE10E94CA
:105160006F3D0E94D438E2E9F7E80E94303C0E948B
:10517000DC38E3EAF3E0A4E2BCE10E946F3D0E9468
:10518000D438E2E9F7E80E94303C0E94DC38E5EAD6
:10519000F3E0A4E2BCE10E946F3D0E94D438E2E952
:1051A000F7E80E94303C0E94DC38E7EAF3E0A4E232
:1051B000BCE10E946F3D0E94D438E2E9F7E80E940A
:1051C000303C0E94DC38E9EAF3E0A4E2BCE10E9452
:1051D0006F3D0E94D438E2E9F7E80E94303C0E941B
:1051E000DC38EBEAF3E0A4E2BCE10E946F3D0E94F0
:1051F000D438E2E9F7E80E94303C0E94DC38EDEA5E
:10520000F3E0A4E2BCE10E946F3D0E94D438E2E9E1
:10521000F7E80E94303C0E94DC38EFEAF3E0A4E2B9
:10522000BCE10E946F3D0E94D438E2E9F7E80E9499
:10523000303C0E94DC38E1EBF3E0A4E2BCE10E94E8
:105240006F3D0E94D438E2E9F7E80E94303C0E94AA
:10525000DC38E3EBF3E0A4E2BCE10E946F3D0E9486
:10526000D438E2E9F7E80E94303C0E94DC38E6E8F6
:10527000F3E0A4E2BCE10E94693D0E94D4380E94A0
:10528000F1380895289A3FB6F89484EDD2018C93B2
:1052900081E00E94773B0E949E2D229681E00E9431
:1052A000733B3FB6F89482EDD2018C9381E00E946B
:1052B000773B0E949E2D229681E00E94733B3FB671
:1052C000F89480EDD2018C9381E00E94773B0E949C
:1052D0009E2D229681E00E94733BACE6B3E00D91D7
:1052E0001D912D913C91A0E7B3E04D915D916D91A1
:1052F0007C910E94493DACE6B3E00D931D932D9344
:105300003D93E0E7F3E0A4E2BCE10E94693D0E9426
:105310002438EEE1F3E80E94303C0E942C38ECE6A1
:10532000F3E0A4E2BCE10E94693D0E942438EEE172
:10533000F3E80E94303C0E942C38ACE6B3E00D91BB
:105340001D912D913C910E94073A40E15EE060E0A2
:1053500070E00E94533D1CF011F00C94B1290C94A4
:105360000F2AACE6B3E00D911D912D913C9140E1E7
:105370005EE060E070E00E94B339A5E1B2E04D93D9
:105380005D936D937D93A2E8B3E00D911D912D91F6
:105390003C91A5E1B2E04D915D916D917C910E94AF
:1053A000493DA2E8B3E00D931D932D933D93ACE6E8
:1053B000B3E00D911D912D913C9140E15EE060E0E4
:1053C00070E00E94B339ACE6B3E00D931D932D93CA
:1053D0003D93E5E1F2E0A4E2BCE10E94693D0E9458
:1053E0002438EEE1F3E80E94303C0E942C38ECE6D1
:1053F000F3E0A4E2BCE10E94693D0E942438EEE1A2
:10540000F3E80E94303C0E942C38E2E8F3E0A4E28A
:10541000BCE10E94693D0E9424380E943338A6E80E
:10542000B3E04D915D916D917C91A2E8B3E00D9157
:105430001D912D913C910E94533D1CF011F00C9454
:10544000232A0C942F2AA6E8B3E00D911D912D91EB
:105450003C91A2E8B3E00D931D932D933C9340E063
:1054600050E060E070E0A2E8B3E00D911D912D9155
:105470003C910E94533D0CF402C00C94492A00E078
:1054800010E020E030E0A2E8B3E00D931D932D93EF
:105490003C9300917C00007E10917B0018600660B8
:1054A00010937B0000937C000E94B03BAEE7B3E01A
:1054B0008D939C9300917C00007E10917B0018607E
:1054C000076010937B0000937C000E94B03BA0E833
:1054D000B3E08D939C9300917C00007E10917B0043
:1054E000177F066010937B0000937C000E94B03B06
:1054F000ACE7B3E08D939C9300917C00007E10910B
:105500007B00177F056010937B0000937C000E9456
:10551000B03BA4E9B3E08D939C9300917C00007EA6
:1055200010917B00177F046010937B0000937C0038
:105530000E94B03BA2E9B3E08D939C9300917C0064
:10554000007E10917B00177F026010937B00009318
:105550007C000E94B03BA0E9B3E08D939C93009146
:105560007C00007E10917B00177F016010937B0010
:1055700000937C000E94B03BAEE8B3E08D939C9317
:1055800000917C00007E10917B00177F03601093D8
:105590007B0000937C000E94B03BACE8B3E08D93AD
:1055A0009C9300917C00007E10917B00177F1093EC
:1055B0007B0000937C000E94B03BAAE8B3E08D938F
:1055C0009C9300917C00007E10917B001860046029
:1055D00010937B0000937C000E94B03BA8EDB3E0E9
:1055E0008D939C9300917C00007E10917B0018604D
:1055F000056010937B0000937C000E94B03BA6EDF9
:10560000B3E08D939C93E4E9F7E80E94303C0E945C
:10561000DC38A7EBB3E00E94D638E2E9F7E80E9455
:10562000303C0E94DC38ECE7F3E0A4E2BCE10E94ED
:105630006F3D0E94D438E2E9F7E80E94303C0E94B6
:10564000DC38EEE7F3E0A4E2BCE10E946F3D0E948B
:10565000D438E2E9F7E80E94303C0E94DC38E0E808
:10566000F3E0A4E2BCE10E946F3D0E94D438E2E97D
:10567000F7E80E94303C0E94DC38E2E9F3E0A4E263
:10568000BCE10E946F3D0E94D438E2E9F7E80E9435
:10569000303C0E94DC38E4E9F3E0A4E2BCE10E9483
:1056A0006F3D0E94D438E2E9F7E80E94303C0E9446
:1056B000DC38EEE8F3E0A4E2BCE10E946F3D0E941A
:1056C000D438E2E9F7E80E94303C0E94DC38E0E997
:1056D000F3E0A4E2BCE10E946F3D0E94D438E2E90D
:1056E000F7E80E94303C0E94DC38EAE8F3E0A4E2EC
:1056F000BCE10E946F3D0E94D438E2E9F7E80E94C5
:10570000303C0E94DC38ECE8F3E0A4E2BCE10E940B
:105710006F3D0E94D438E2E9F7E80E94303C0E94D5
:10572000DC38E4E7F3E0A4E2BCE10E94693D0E94BA
:10573000D438E2E9F7E80E94303C0E94DC38E8E720
:10574000F3E0A4E2BCE10E94693D0E94D438E2E9A2
:10575000F7E80E94303C0E94DC38E0E7F3E0A4E286
:10576000BCE10E94693D0E94D438E2E9F7E80E945A
:10577000303C0E94DC38E8EDF3E0A4E2BCE10E949A
:105780006F3D0E94D438E2E9F7E80E94303C0E9465
:10579000DC38E6EDF3E0A4E2BCE10E946F3D0E943C
:1057A000D438E2E9F7E80E94303C0E94DC38E4E4B7
:1057B000F2E0A4E2BCE10E946F3D0E94D438E2E92D
:1057C000F7E80E94303C0E94DC38E2E6F2E0A4E216
:1057D000BCE10E946F3D0E94D438E2E9F7E80E94E4
:1057E000303C0E94DC38E5E5F3E0A4E2BCE10E9435
:1057F000763D0E94D438E2E9F7E80E94303C0E94EE
:10580000DC38EBECF2E0A4E2BCE10E946F3D0E94C8
:10581000D438E2E9F7E80E94303C0E94DC38EDEC35
:10582000F2E0A4E2BCE10E946F3D0E94D438E2E9BC
:10583000F7E80E94303C0E94DC38E0E6F2E0A4E2A7
:10584000BCE10E946F3D0E94D438E2E9F7E80E9473
:10585000303C0E94DC38EEE5F2E0A4E2BCE10E94BC
:105860006F3D0E94D438E2E9F7E80E94303C0E9484
:10587000DC38E2E8F3E0A4E2BCE10E94693D0E946A
:10588000D438E2E9F7E80E94303C0E94DC38E5EBCE
:10589000F3E0A4E2BCE10E946F3D0E94D438E2E94B
:1058A000F7E80E94303C0E94DC38E4E3F4E0A4E234
:1058B000BCE10E946F3D0E94D438E2E9F7E80E9403
:1058C000303C0E94DC38E8EFF3E0A4E2BCE10E9447
:1058D0006F3D0E94D438E2E9F7E80E94303C0E9414
:1058E000DC38E4E3F4E0A4E2BCE10E946F3D0E94F6
:1058F000D438E2E9F7E80E94303C0E94DC38E8EF57
:10590000F3E0A4E2BCE10E946F3D0E94D4380E9403
:10591000F138289808953FBEA4EFB5E00E943C3EC0
:10592000ADE1B2E08D9388278C93ADE1B2E00D91AB
:105930001C91AA81BB814D915527041B150BABE12E
:10594000B2E00D931C93A4EFB5E00E943C3EEA2F19
:10595000FB2F00911B023197E01BF0400FEFA8E2F4
:10596000B2E00E94123EA8E2B2E00E94BC3DA9E172
:10597000B2E00D931C93A9E1B2E08C91A3E2B2E0F6
:105980008C93A9E1B2E011968C91A2E2B2E08C93E3
:10599000A881B981EC91FF27A3E2B2E091E07BE717
:1059A0000E94243EA881B9818C918F5F8C93A8813D
:1059B000B981EC91FF27A2E2B2E091E07BE70E947F
:1059C000243EE6E9F7E80E94303C0E942C38E9E1E9
:1059D000F2E0A4E2BCE10E946F3D0E942438E6EAB6
:1059E000F7E80E94303C0E942C38E881F981A4E25B
:1059F000BCE10E94763D0E9424380E94333808950D
:105A00003FBE80E08093C9068FE18093C8060E9464
:105A1000A140A881B9811C910E94B9401091C8068B
:105A20000E94B9400E94B040EF93FF93ECE8F1E090
:105A30000E94123AFF91EF910E94A140A881B98182
:105A40001C911F5F0E94B9400E94D840A7E2B2E0BB
:105A50001C930E94D840A6E2B2E01C930E94D8405A
:105A6000A5E2B2E01C930E94D640A4E2B2E01C93EF
:105A70000E94B040ECEAF7E80E94303C0E942C38CB
:105A8000E881F981A4E2BCE10E94763D0E942438BD
:105A9000E0EBF7E80E94303C0E942C38E7E2F2E0AD
:105AA000A4E2BCE10E94763D0E942438E6EBF7E8D0
:105AB0000E94303C0E942C38E6E2F2E0A4E2BCE115
:105AC0000E94763D0E942438ECEBF7E80E94303CBF
:105AD0000E942C38E5E2F2E0A4E2BCE10E94763DAF
