:100000000C947200189500001895000018950000D7
:10001000189500001895000018950000189500002C
:10002000189500001895000018950000189500001C
:10003000189500001895000018950000189500000C
:1000400018950000189500001895000018950000FC
:100050000C945D0418950000189500001895000098
:10006000189500000C947A2118950000189500004E
:1000700018950000189500001895000018950000CC
:1000800018950000189500001895000018950000BC
:100090000C94A821189500001895000018950000F0
:1000A000189500001895000018950000189500009C
:1000B000189500001895000018950000189500008C
:1000C000189500001895000018950000189500007C
:1000D000189500001895000018950000189500006C
:1000E000189500008FEF8DBFC8E1E0E64E2E81E24B
:1000F0008EBFDEE1F6E15F2EA89584B7082E877FDC
:1001000084BF88E199278093600090936000EEEFB0
:10011000FFE1A0E0B2E088278D933197E9F787E609
:100120008093C40080E08093C50088E18093C10083
:100130000E9469156624209A289A209A289A229A61
:100140002A9A2398219A299A0E94F1150E946316EF
:10015000A2E0B2E09C930E94CC2487E880937A00CE
:1001600080E080937C0070917A00706870937A00D0
:1001700084988C9A83988B9A389A40983A9A4298A5
:10018000099A0A9A11981298879A8F989898A09A23
:1001900070910701706870930701709108017F7773
:1001A000709308017091070170647093070170915A
:1001B00008017F7B7093080170910701786070934C
:1001C000070170910801777F709308016C98749A09
:1001D00070910A017F7E70930A0170910B0170612A
:1001E00070930B0170910A017F7B70930A017091EB
:1001F0000B01706470930B01099A80E08093740B7B
:1002000080E08093730B03E010E020E030E0A7EB88
:10021000BBE00D931D932D933C9301E010E020E093
:1002200030E0ABEBBBE00D931D932D933C9300E6C8
:100230001AEE20E030E0ABEDBBE00D931D932D9363
:100240003C930FEF1FEF20E030E0AFEDBBE00D93EC
:100250001D932D933C9380E08093800085E08093F4
:10026000810070916F00716070936F0080918100C8
:10027000887F809381008DE0ABE1BCE08D9388277F
:100280008C938AE0ABE1BCE00E94E4148D93882754
:100290008C93E4E1F0E0A6ECBAE091E00E948A22BF
:1002A000E5E1F0E0A7ECBAE091E00E948A22A7EC39
:1002B000BAE00D91112740E051E00E94FC20A1E638
:1002C000BBE00D931C93A1E6BBE00D911C91A6EC45
:1002D000BAE04D915527040F151FA1E6BBE00D9321
:1002E0001C93E6E1F0E0A6ECBAE091E00E948A22DD
:1002F000E7E1F0E0A7ECBAE091E00E948A22A7ECE7
:10030000BAE00D91112740E051E00E94FC20A3E6E5
:10031000BBE00D931C93A3E6BBE00D911C91A6ECF2
:10032000BAE04D915527040F151FA3E6BBE00D93CE
:100330001C93E8E1F0E0A6ECBAE091E00E948A228A
:10034000E9E1F0E0A7ECBAE091E00E948A22A7EC94
:10035000BAE00D91112740E051E00E94FC20A5E693
:10036000BBE00D931C93A5E6BBE00D911C91A6ECA0
:10037000BAE04D915527040F151FA5E6BBE00D937C
:100380001C9387E880937A0080E480937C007091CE
:100390007A00706870937A0080E18093C40080E0F6
:1003A0008093C5007091C00072607093C00088E1B6
:1003B0008093C10086E08093C2007091C100706894
:1003C0007093C10089E18093CC0080E08093CD00E0
:1003D0007091C8007D7F7093C80086E08093CA004A
:1003E00088E18093C9007091C90070687093C9005A
:1003F00081E090E0ABECBCE08D939C93A4E2BCE088
:10040000E4E1FAE40E946E210E94292180E08093B9
:10041000730B409880E08093740B42981198129867
:10042000A8ECBAE0ECE0FAE40E946E210E945421AC
:10043000ACECBAE0ECE0FAE40E946E210E94542198
:100440000E943D158FE711E00E945015ECE1FAE49F
:100450000E946E210E9436158FEB11E00E9450150C
:10046000ECE2FAE40E946E210E943615E2E0F0E030
:100470000E946015AFE2B0E00C9104FB81E00EF445
:1004800080E08F93AFE2B0E00C9103FB81E00EF4CB
:1004900080E09F918923882311F40C9451020C94DD
:1004A0008B0E0E94F1040E94D80800915E0B003070
:1004B00011F00C947F020E943D158FE711E00E941D
:1004C0005015EAE3FAE40E946E210E9436158FEB84
:1004D00011E00E945015EEE4FAE40E946E210E94A1
:1004E00036157C9B0C9476020C9471027C990C94CA
:1004F0007F0282E390E00E9403160C947602009142
:100500005E0B013081E009F080E08F93A0E2BCE057
:100510000D911C91013050E0150781E009F080E059
:100520009F918923882311F40C9498020E94A506B8
:100530000E943D158FE711E00E945015EEE5FAE4A8
:100540000E946E210E9436158FEB11E00E9450151B
:10055000E4E7FAE40E946E210E9436157894E2E8FE
:10056000FAE40E946E210E941D15A8E4B6E1E1E6BE
:10057000FBE00E94F9210E941515E2E9FAE40E94CD
:100580006E210E941D15A8E4B6E1E3E6FBE00E949F
:10059000F9210E9415150E94241590990C94D902F6
:1005A00081E08093AF0A80E090E0A0E2BCE08D9310
:1005B0009C9382E080B900917C00007E10917B00CA
:1005C000177F026010937B0000937C000E942F2114
:1005D000AFE5BBE08D939C93A3EEBBE00D911C9126
:1005E000003050E0150711F00C944F030091730B8D
:1005F000013011F00C944F03A7E6BBE00D911C9164
:10060000AFE5BBE04D915C91041B150BA1EBBAE08B
:100610000D931C93A1EBBAE08D919C910E94C414A0
:10062000082F192F17FB1EF42FEF3FEF02C02227D0
:10063000332744E150E060E070E00E94E0211CF0CC
:1006400011F00C9425030C944F03A1EBBAE08D91AB
:100650009C910E94C414ACEBBAE08D939C93ADECDA
:10066000BCE0ECEBFAE00E94F921A4E2BCE0EAE98C
:10067000FAE40E946E210E942921EDECFCE0A4E244
:10068000BCE00E94E4140E94492280E08093730B36
:10069000409880E08093740B4298119812987C994E
:1006A0000C94DA038AE090E00E9403167C990C9483
:1006B000DA037C990C9462038AE090E00E940316AE
:1006C0000C9459038AE090E00E9403160091730B8A
:1006D000013011F00C949003EAEAFAE40E946E21D2
:1006E0000E941D150E942415A4E2BCE0E0EBFAE490
:1006F0000E946E210E94292180E08093730B409814
:1007000080E08093740B429811981298EAEBFAE417
:100710000E946E210E941D150E9424150C94DA037C
:10072000A3ECBBE00D911C91043150E015071CF0C7
:1007300011F00C949D030C94DA03AFE5BBE08D91AE
:100740009C91A7E6BBE08D939C9381E08093730B13
:10075000A1ECBBE08D919C91A8EDBAE08D939C93A8
:10076000E0EDFAE0A8ECBAE00E944E22E4EDFAE0F7
:10077000ACECBAE00E944E22E4ECFAE40E946E2156
:100780000E941D15A8E4B6E1E3EBFBE00E94F62110
:100790000E941515ECECFAE40E946E210E941D15D2
:1007A000A8E4B6E1EFE5FBE00E94F9210E941515EF
:1007B0000E942415082F003018F011F00C94E20369
:1007C0000C9415040E94C60900915E0B013011F0D3
:1007D0000C940D040091730B013081E009F080E06E
:1007E0008F9300915E0B013081E009F080E09F91D2
:1007F0008923882311F40C94FF030E94350CA0E296
:10080000BCE00D911C91013050E0150711F00C94E3
:100810000B040E94EE060C941504E6EDFAE40E9427
:100820006E210E941D150E9424150E94EB14082FB2
:10083000003018F011F00C941F040C945B040E941B
:10084000F114ABEDBAE08C93ABEDBAE08C910E9461
:100850002715A7E1BCE00D911C91013050E0150770
:1008600011F00C943B0484E00E943F1D08F403C087
:10087000FA93EA9322960091DB0A0B3111F00C9463
:100880004F0481E090E0A7E1BCE08D939C9384E06D
:100890000E943F1D08F403C0FA93EA932296009148
:1008A000DB0A003211F00C945B0480E090E0A7E1D9
:1008B000BCE08D939C930C94CD020F921F922F92CB
:1008C0003F924F925F927F92AF92BF920F931F938E
:1008D0002F933F934F935F936F937F938F939F9348
:1008E000AF93BF93CF93DF93EF93FF938FB78F9324
:1008F0008BB78F9388278BBF40E050E060E070E0BB
:10090000ABEDBBE00D911D912D913C910E94E0213A
:1009100011F00C94A30411981298AFEDBBE00D9167
:100920001C9100571741109385000093840001E04B
:1009300010E020E030E0ABEDBBE00D931D932D9374
:100940003C930C94D10480918100887F8093810036
:1009500000917C00007E10917B00177F0260109355
:100960007B0000937C000E942F21AFE5BBE08D93BC
:100970009C93AFE5BBE08D919C91A7E6BBE08D9386
:100980009C9380E090E0A3EEBBE08D939C9300E00D
:1009900010E020E030E0ABEDBBE00D931D932D9314
:1009A0003C938F918BBF8F918FBFFF91EF91DF9120
:1009B000CF91BF91AF919F918F917F916F915F91F7
:1009C0004F913F912F911F910F91BF90AF907F90CA
:1009D0005F904F903F902F901F900F901895F89434
:1009E000FFCF909B0C94530680E090E0A0E2BCE027
:1009F0008D939C930E946316A2E0B2E09C93EEED6F
:100A0000FAE40E946E210E941D150E942415E6EF53
:100A1000FAE40E946E210E941D15A8E4B6E1E2E00E
:100A2000F2E00E9400220E9415150E942415E0E1C8
:100A3000FBE40E946E210E941D15A8E4B6E1E3E0EC
:100A4000F2E00E9400220E9415150E9424150091D8
:100A50000102013011F00C943705E4E2FBE40E943E
:100A60006E210E941D150E9424150C946905023008
:100A700011F00C944505E6E3FBE40E946E210E9410
:100A80001D150E9424150C946905043011F00C9476
:100A90005305E2E5FBE40E946E210E941D150E94B1
:100AA00024150C9469050C3011F00C946105EEE6E8
:100AB000FBE40E946E210E941D150E9424150C94D7
:100AC0006905E8E9FBE40E946E210E941D150E9461
:100AD0002415EAEAFBE40E946E210E941D1581E0C4
:100AE0000E947C18A1EBBAE09D9388278C9300911B
:100AF0000202003011F00C944106A1EBBAE00D9116
:100B00001C91003050E0150711F40C949F05E0ECA7
:100B1000FBE40E946E210E941D15A8E4B6E1E1EB02
:100B2000FAE00E94F9210E941515E8ECFBE40E940E
:100B30006E210E941D150E9424150C943F0681E031
:100B400090E0A0E2BCE08D939C93EEEDFBE40E946C
:100B50006E210E941D150E942415E2EEFBE40E9406
:100B60006E210E941D15A8E4B6E1EAE0F2E00E94C1
:100B700000220E9415150E942415E0EFFBE40E945C
:100B80006E210E941D15A8E4B6E1ECE0F2E00E949F
:100B9000F6210E9415150E942415E4E0FCE40E9451
:100BA0006E210E941D15A8E4B6E1E5E1F2E00E9485
:100BB000F6210E9415150E942415E8E1FCE40E942C
:100BC0006E210E941D15A8E4B6E1EBE1F2E00E945F
:100BD000F6210E9415150E942415ECE2FCE40E9407
:100BE0006E210E941D15A8E4B6E1E0E2F2E00E9449
:100BF000F6210E9415150E942415E4E4FCE40E94ED
:100C00006E210E941D15A8E4B6E1EFE1F2E00E941A
:100C100000220E9415150E942415EAE5FCE40E94BA
:100C20006E210E941D15A8E4B6E1E9E1F2E00E9400
:100C3000F3210E9415150E942415EAE6FCE40E94A7
:100C40006E210E941D15A8E4B6E1E1E1F2E00E94E8
:100C5000F6210E9415150E942415ECE7FCE40E9481
:100C60006E210E941D15A8E4B6E1E0E1F2E00E94C9
:100C700000220E9415150E9424150E9424150C9430
:100C80005106EEE8FCE40E946E210E941D15A8E4C6
:100C9000B6E1E2E0F2E00E9400220E9415150E94F7
:100CA00024150C945B06E8EAFCE40E946E210E9485
:100CB0001D150E942415A0E2BCE00D911C9100308E
:100CC00050E0150711F00C94A4060E943D158FE723
:100CD00011E00E945015EEEBFCE40E946E210E9490
:100CE00036158FEB11E00E945015EEE4FAE40E94F5
:100CF0006E210E94361584E690E0A1EBBAE08D9358
:100D00009C937C9B0C949B0682E390E00E940316CC
:100D1000A1EBBAE00E949714A1EBBAE00D911C91EF
:100D2000003050E015070CF402C00C9499060C94A6
:100D3000A4060C9481067C990C94A40682E390E0AE
:100D40000E9403160C949B060895EEE9FBE002E076
:100D5000A9EFBBE00E94682284E0EEE9FBE002E03C
:100D60000A93A9EFBBE00E94E4140E94612287E08D
:100D7000EEE9FBE002E00A93A9EFBBE00E94E41475
:100D80000E9461228AE0EEE9FBE002E00A93A9EF0B
:100D9000BBE00E94E4140E9461228DE0EEE9FBE0DA
:100DA00002E00A93A9EFBBE00E94E4140E946122D2
:100DB00080E1EEE9FBE002E00A93A9EFBBE00E94CC
:100DC000E4140E946122A9EFBBE00E94E414E0ED6C
:100DD000FCE40E946E210E94292108950091AF0A2F
:100DE000013011F00C940D07E3E0F0E00E94601573
:100DF0000E94F104E6EDFCE40E946E210E941D15A4
:100E00000E942415A0E2BCE00D911C91003050E03E
:100E1000150711F00C940D07089580E08093AF0A38
:100E2000A9EFBBE08C91803011F00C9419070E945F
:100E3000A5068AE0A9EFBBE00E942C198AE00E9477
:100E40003F1D08F4BDC0FA93EA93AEE9BBE00E94EF
:100E5000E81FE4EEFCE40E946E210E94FB1FE3EC1D
:100E6000FBE00E940D20E4EEFCE40E946E210E9453
:100E7000FB1FE1ECFBE00E940D20E4EEFCE40E948D
:100E80006E210E94FB1FE3EBFBE00E941220E4EEC8
:100E9000FCE40E946E210E94FB1FE3E7FBE00E943E
:100EA0000820E4EEFCE40E946E210E94FB1FE8EDA6
:100EB000FAE00E940D20E4EEFCE40E946E210E9404
:100EC000FB1FE8EEFBE00E941220E4EEFCE40E942F
:100ED0006E210E94FB1FECEEFBE00E941220E4EE6C
:100EE000FCE40E946E210E94FB1FE0EFFBE00E94E9
:100EF0001220E4EEFCE40E946E210E94FB1FE9EC4C
:100F0000FBE00E941220E4EEFCE40E946E210E94AD
:100F1000FB1FE5ECFBE00E941220E4EEFCE40E94E3
:100F20006E210E94FB1FEFE5FBE00E940D20E4EE26
:100F3000FCE40E946E210E94FB1FE7E6FBE00E949A
:100F40000D20E4EEFCE40E946E210E94FB1FECEDFC
:100F5000FAE00E940D20E4EEFCE40E946E210E9463
:100F6000FB1FE3EEFBE00E940D20E4EEFCE40E9498
:100F70006E210E94FB1FE4EFFBE00E941220E4EED2
:100F8000FCE40E946E210E94FB1FEDECFBE00E943E
:100F90000D20E4EEFCE40E946E210E94FB1FA4E2FF
:100FA000BCE00E94E81FE4EEFCE40E946E210E9477
:100FB000FB1FE5E6FBE00E940D200E94F51F229634
:100FC0008AE00E945019AEE9BBE00E941715E6EED8
:100FD000FCE40E946E210E941D15A8E4B6E1E3EC3A
:100FE000FBE00E94F9210E941515E6EEFCE40E9448
:100FF0006E210E941D15A8E4B6E1E1ECFBE00E9421
:10100000F9210E941515E6EEFCE40E946E210E9473
:101010001D15A8E4B6E1E3EBFBE00E94F6210E9477
:101020001515E6EEFCE40E946E210E941D15A8E451
:10103000B6E1E3E7FBE00E9400220E941515E6EE10
:10104000FCE40E946E210E941D15A8E4B6E1E8EDC3
:10105000FAE00E94F9210E941515E6EEFCE40E94D8
:101060006E210E941D15A8E4B6E1E8EEFBE00E94A7
:10107000F6210E941515E6EEFCE40E946E210E9406
:101080001D15A8E4B6E1ECEEFBE00E94F6210E94FB
:101090001515E6EEFCE40E946E210E941D15A8E4E1
:1010A000B6E1E0EFFBE00E94F6210E941515E6EEA6
:1010B000FCE40E946E210E941D15A8E4B6E1E9EC53
:1010C000FBE00E94F6210E941515E6EEFCE40E946A
:1010D0006E210E941D15A8E4B6E1E5ECFBE00E943C
:1010E000F6210E941515E6EEFCE40E946E210E9496
:1010F0001D15A8E4B6E1EFE5FBE00E94F9210E948E
:101100001515E6EEFCE40E946E210E941D15A8E470
:10111000B6E1E7E6FBE00E94F9210E941515E6EE34
:10112000FCE40E946E210E941D15A8E4B6E1ECEDDE
:10113000FAE00E94F9210E941515E4EEFCE40E94F9
:101140006E210E941D15A8E4B6E1E3EEFBE00E94CB
:10115000F9210E941515E4EEFCE40E946E210E9424
:101160001D15A8E4B6E1E4EFFBE00E94F6210E9421
:101170001515E4EEFCE40E946E210E941D15A8E402
:10118000B6E1EDECFBE00E94F9210E941515E4EEBA
:10119000FCE40E946E210E941D15A8E4B6E1E5E67C
:1011A000FBE00E94F9210E9415150E942415089564
:1011B0000E943D158FE711E00E945015E8EEFCE417
:1011C0000E946E210E943615EAEFFCE40E946E2117
:1011D0000E941D150E942415AAE2BBE0E0E0FDE498
:1011E0000E946E210E942921EBE1FCE0AAE2BBE013
:1011F0000E94E4140E94492283E00E943F1D08F4EB
:1012000007C0FA93EA93AAE2BBE00E94E81F229685
:1012100084E690E00E940316AAE2BBE0E8E1FDE468
:101220000E946E210E942921EBE1FCE0AAE2BBE0D2
:101230000E94E4140E94492283E00E943F1D08F4AA
:1012400007C0FA93EA93AAE2BBE00E94E81F229645
:1012500084E690E00E940316AAE2BBE0E0E3FDE42E
:101260000E946E210E942921EBE1FCE0AAE2BBE092
:101270000E94E4140E94492283E00E943F1D08F46A
:1012800007C0FA93EA93AAE2BBE00E94E81F229605
:1012900084E690E00E940316AAE2BBE0E8E4FDE4E5
:1012A0000E946E210E942921EBE1FCE0AAE2BBE052
:1012B0000E94E4140E94492283E00E943F1D08F42A
:1012C00007C0FA93EA93AAE2BBE00E94E81F2296C5
:1012D00084E690E00E940316AAE2BBE0E0E6FDE4AB
:1012E0000E946E210E942921EBE1FCE0AAE2BBE012
:1012F0000E94E4140E94492283E00E943F1D08F4EA
:1013000007C0FA93EA93AAE2BBE00E94E81F229684
:1013100084E690E00E940316AAE2BBE0E8E7FDE461
:101320000E946E210E942921EBE1FCE0AAE2BBE0D1
:101330000E94E4140E94492283E00E943F1D08F4A9
:1013400007C0FA93EA93AAE2BBE00E94E81F229644
:1013500084EF91E00E9403160895AAE2BBE0E2E95F
:10136000FDE40E946E210E942921EBE1FCE0AAE24B
:10137000BBE00E94E4140E94492283E00E943F1DCA
:1013800008F403C0FA93EA93229608957091080135
:10139000706870930801AAE2BBE088278C9380E014
:1013A00080935E0B80E090E0A7EDBBE08D939C9373
:1013B00080E08093DD0CA7EDBBE00D911C91003126
:1013C00057E215070CF402C00C94670A082F00308E
:1013D00018F011F00C94EE090C945C0A80E090E097
:1013E000A7EDBBE08D939C93E89483E0ACEDBCE06B
:1013F0000E945F1981E00E94F620ACEDBCE08C9168
:10140000A881B9818D9388278C93A881B981E6EA58
:10141000FDE40E946E210E9497220FB681E0481AD7
:1014200080E0580A22960FBE11F00C941A0A81E04F
:101430008093DD0C0091DD0C013011F00C945A0A00
:101440000091DC0C0D3011F00C94280A0C945A0A0F
:101450000091DC0C0A3011F00C94420A082F003085
:1014600018F011F00C94360A0C943E0AE89483E0CC
:10147000ABEDBAE00E945F190C942E0A0C94790A25
:101480000C945A0AAAE2BBE00E949122082F0A3566
:1014900018F011F00C944E0A0C94500A0C942F0C76
:1014A000ACEDBCE08C91AAE2BBE00E94E4148D9309
:1014B00088278C930C94650AA7EDBBE00E949014DA
:1014C000EF93E8E0EA95F1F7EF910C94DB09E8EA95
:1014D000FDE40E946E210E941D15A8E4B6E1E7ED2F
:1014E000FBE00E94F9210E9415150E9424150C941E
:1014F0002F0C84E30E94F620EAE2FBE007E0A881DB
:10150000B9810E946822A881B981EAEBFDE40E94BA
:101510006E210E9497220FB684E3481A80E0580A91
:1015200022960FBE11F40C941B0BE2ECFDE40E941A
:101530006E210E941D15AAE2BBE00E9417150E94B1
:10154000241584E30E94F620EAE2FBE007E0A8818C
:10155000B9810E946822A881B981E8ECFDE40E946B
:101560006E210E9497220FB684E3481A80E0580A41
:1015700022960FBE11F00C94DD0AAAE2BBE0E0E077
:10158000FDE40E946E210E942921EBE1FCE0AAE229
:10159000BBE00E94E4140E94492283E00E943F1DA8
:1015A00008F407C0FA93EA93AAE2BBE00E94E81F9E
:1015B000229684E690E00E94031684E30E94F620BF
:1015C000EAE2FBE007E0A881B9810E946822A881D5
:1015D000B981E0EDFDE40E946E210E9497220FB6D2
:1015E00084E3481A80E0580A22960FBE11F00C944A
:1015F000190BAAE2BBE0E0E3FDE40E946E210E9429
:101600002921EBE1FCE0AAE2BBE00E94E4140E9485
:10161000492283E00E943F1D08F407C0FA93EA9331
:10162000AAE2BBE00E94E81F229684E690E00E94B6
:1016300003160C942F0CEAE2FBE09CE20CE03AE08B
:10164000AEEDBCE00E94AD22A1EBBAE02D9388275D
:101650008C93A1EBBAE00D911C910A3050E0150774
:1016600011F40C94470BE2ECFDE40E946E210E9401
:101670001D15A8E4B6E1E1EBFAE00E94F9210E9411
:1016800015150E9424150C942F0C0C94930BA9E3B0
:10169000BDE00E94F923EDE0F0E0A0E6BDE00E948D
:1016A0004E22E0E1FAE40E946E210E94EC23E0E683
:1016B000FDE00E94E2220E94AE23EDE0F0E00E94F5
:1016C000F222A3ECBBE0EE0C000FE794DD92EC926B
:1016D000A6E4BDE00E94F923EDE0F0E0A0E6BDE065
:1016E0000E944E22E0E1FAE40E946E210E94EC2367
:1016F000E0E6FDE00E94E2220E94AE23EDE0F0E091
:101700000E94F222A1ECBBE0EE0C000FE794DD9208
:10171000EC92A1ECBBE08D919C91A3EBBBE08D938F
:101720009C930E94E820E3E5FDE002E0AEE9BBE027
:101730000E946822AEE9BBE00E94E414E8EDFDE4FB
:101740000E946E210E94292183E0E3E5FDE002E092
:101750000A93AEE9BBE00E94E4140E946122AEE964
:10176000BBE00E94E414E8EDFDE40E946E210E94BB
:101770002921A3E5BDE00E949122EA2FFB2F339798
:101780000FEFAEE9BBE00E94E4140E946822AEE9CC
:10179000BBE00E94E414E6EEFCE40E946E210E948D
:1017A0002921EBEEFCE002E0AEE9BBE00E94E4148C
:1017B0000E946822AEE9BBE00E94E414EAEDFDE479
:1017C0000E946E210E94292183E0EBEEFCE002E002
:1017D0000A93AEE9BBE00E94E4140E946122AEE9E4
:1017E000BBE00E94E414EAEDFDE40E946E210E9439
:1017F000292185E0EBEEFCE002E00A93AEE9BBE0D4
:101800000E94E4140E946122ECEDFDE40E946E212E
:101810000E941D15A8E4B6E1E3ECFBE00E94F9216B
:101820000E941515E4EEFDE40E946E210E941D1534
:10183000A8E4B6E1E3EBFBE00E94F6210E94151557
:10184000EEEEFDE40E946E210E941D15AEE9BBE0A4
:101850000E9417150E94241581E080935E0B709101
:1018600008017F77709308010895A3EBBBE00D9109
:101870001D912D913C91A8EDBAE04D915D9157FBE2
:101880001EF46FEF7FEF02C0662777270E94DB21EF
:10189000A8EEBBE00D931D932D933D9348EF58EFB9
:1018A0006FEF7FEFA8EEBBE00D911D912D913C9164
:1018B0000E94E0210CF402C00C94700CA8EEBBE076
:1018C0000D911D912D913C9140E15EE060E070E052
:1018D0000E94D621A8EEBBE00D931D932D933D935E
:1018E00048E057E060E070E0A8EEBBE00D911D918C
:1018F0002D913C910E94E0211CF011F00C94820C7F
:101900000C94940CA8EEBBE00D911D912D913C918F
:1019100040E15EE060E070E00E94DB21A8EEBBE009
:101920000D931D932D933D93A8EEBBE00D911D915A
:101930002D913C91ACEEBBE04D915D916D917C9110
:101940000E94DB21A0EFBBE00D931D932D933D93EF
:10195000E6EFFDE40E946E210E941D15A8E4B6E1A9
:10196000E8EEFBE00E94F6210E941515EAEFFDE487
:101970000E946E210E941D15A8E4B6E1E0EFFBE095
:101980000E94F6210E9415150E94241580E090E027
:10199000ADECBBE08D939C9344E150E060E070E0DF
:1019A000A8EEBBE00D911D912D913C910E94E0218C
:1019B0001CF011F00C94DE0C0C94AE0DACEEBBE000
:1019C0004D915D916D917C91A8EEBBE00D911D91C3
:1019D0002D913C910E94E0211CF011F00C94F20C2E
:1019E0000C945B0D81E090E0ADECBBE08D939C939B
:1019F000A8EEBBE00D911D912D913C9146E950E080
:101A000060E070E00E940621A4EFBBE00D931D93FF
:101A10002D933D9300916D0B003011F00C94220D2D
:101A2000A4EFBBE00D911D912D913C914CEB52E048
:101A300060E070E00E94D621A4EFBBE00D931D93FF
:101A40002D933D9340E757E160E070E0A4EFBBE0E9
:101A50000D911D912D913C910E94E0211CF011F0FF
:101A60000C94340D0C943E0D00E717E120E030E0BB
:101A7000A4EFBBE00D931D932D933C93AFEDBBE022
:101A80000D911C91A4EFBBE04D915C91041B150BD3
:101A90001093850000938400119A85E08093810063
:101AA00081E080936D0B81E090E0A3EEBBE08D932D
:101AB0009C930C94AE0D40E050E060E070E0A8EE26
:101AC000BBE00D911D912D913C910E94E02180E0A1
:101AD00014F009F081E08F9342E350E060E070E0A1
:101AE000A8EEBBE00D911D912D913C910E94E0214B
:101AF00080E00CF481E09F918923882311F40C94F9
:101B0000AE0D46EF5FEF6FEF7FEFA0EFBBE00D9103
:101B10001D912D913C910E94E0210CF402C00C9487
:101B2000AE0D82E090E0ADECBBE08D939C93AFED09
:101B3000BBE00D911C910C5D154010938500009346
:101B40008400129A85E08093810080E080936D0B81
:101B500081E090E0A3EEBBE08D939C934CEE5FEFB1
:101B60006FEF7FEFA8EEBBE00D911D912D913C91A1
:101B70000E94E0210CF402C00C947E0EACEEBBE09F
:101B80004D915D916D917C91A8EEBBE00D911D9101
:101B90002D913C910E94E0210CF402C00C943B0E6C
:101BA00083E090E0ADECBBE08D939C93A8EEBBE0AE
:101BB0000D911D912D913C910E94E31546E950E055
:101BC00060E070E00E940621A4EFBBE00D931D933E
:101BD0002D933D9300916D0B013011F00C94020E8A
:101BE000A4EFBBE00D911D912D913C914CEB52E087
:101BF00060E070E00E94D621A4EFBBE00D931D933E
:101C00002D933D9340E757E160E070E0A4EFBBE027
:101C10000D911D912D913C910E94E0211CF011F03D
:101C20000C94140E0C941E0E00E717E120E030E037
:101C3000A4EFBBE00D931D932D933C93AFEDBBE060
:101C40000D911C91A4EFBBE04D915C91041B150B11
:101C50001093850000938400129A85E080938100A0
:101C600080E080936D0B81E090E0A3EEBBE08D936C
:101C70009C930C947E0E4EEC5FEF6FEF7FEFA8EE1F
:101C8000BBE00D911D912D913C910E94E02180E0DF
:101C90000CF481E08F934AE050E060E070E0A0EF48
:101CA000BBE00D911D912D913C910E94E02180E0BF
:101CB00014F009F081E09F918923882311F40C949A
:101CC0007E0E84E090E0ADECBBE08D939C93AFED95
:101CD000BBE00D911C910C5D1540109385000093A5
:101CE0008400119A85E08093810081E080936D0BE0
:101CF00081E090E0A3EEBBE08D939C93A8EEBBE067
:101D00000D911D912D913C91ACEEBBE00D931D9377
:101D10002D933C930895AFE2B0E00C9104FB81E079
:101D20000EF480E08F93AFE2B0E00C9103FB81E012
:101D30000EF480E09F91892B882311F40C94A60E59
:101D400082E390E00E9403160C948B0E0E943D15D6
:101D50008FE711E00E945015E0E0FEE40E946E2142
:101D60000E9436158FEB11E00E945015E2E1FEE46F
:101D70000E946E210E9436157C9B0C94E80E009107
:101D80007C00007E10917B00177F026010937B0027
:101D900000937C000E942F21A1EBBAE08D939C93CD
:101DA0008FEB10E10E945015A8E4B6E1E1EBFAE0F8
:101DB0000E94F9210E942E15E2E2FEE40E946E21AB
:101DC0000E94361582E390E00E9403160C94BC0E2C
:101DD0007C990C94F10E82E390E00E9403160C941F
:101DE000E80EA1EBBAE08D919C91A1E6BBE08D934A
:101DF0009C930E943D158FE711E00E945015E6E28A
:101E0000FEE40E946E210E9436158FEB11E00E94C5
:101E10005015E2E1FEE40E946E210E9436157C9B83
:101E20000C943B0F00917C00007E10917B00177F8B
:101E3000026010937B0000937C000E942F21A1EB95
:101E4000BAE08D939C938FEB10E10E945015A8E4AB
:101E5000B6E1E1EBFAE00E94F9210E942E15E2E2E0
:101E6000FEE40E946E210E94361582E390E00E94FB
:101E700003160C940F0F7C990C94440F82E390E0AE
:101E80000E9403160C943B0FA1EBBAE08D919C913C
:101E9000A3E6BBE08D939C93A1E6BBE08C91A6ECFE
:101EA000BAE08C93A1E6BBE011968C91A7ECBAE066
:101EB0008C93E4E1F0E0A6ECBAE091E07BE70E94CD
:101EC0007922E5E1F0E0A7ECBAE091E07BE70E943F
:101ED0007922A3E6BBE08C91A6ECBAE08C93A3E652
:101EE000BBE011968C91A7ECBAE08C93E6E1F0E0B0
:101EF000A6ECBAE091E07BE70E947922E7E1F0E00E
:101F0000A7ECBAE091E07BE70E947922A3E6BBE070
:101F10000D911C91A1E6BBE04D915C91041B150B4A
:101F2000A1EBBAE00D931C93A1EBBAE00D911C91CB
:101F300042E050E00E94A414A1EBBAE04D935C9300
:101F4000A1EBBAE00D911C91A1E6BBE04D915C9133
:101F5000040F151FA1EBBAE00D931C93A1EBBAE09F
:101F60008D919C91A5E6BBE08D939C93A1EBBAE08B
:101F70008C91A6ECBAE08C93A1EBBAE011968C910F
:101F8000A7ECBAE08C93E8E1F0E0A6ECBAE091E0CF
:101F90007BE70E947922E9E1F0E0A7ECBAE091E06A
:101FA0007BE70E9479220E943D158FE711E00E9495
:101FB0005015E6E3FEE40E946E210E9436158FEB79
:101FC00011E00E945015ECE4FEE40E946E210E9494
:101FD00036157C9B0C94F20F8AE090E00E94031669
:101FE0000C94E90F7C990C94FB0F8AE090E00E941E
:101FF00003160C94F20F00917C00007E10917B0080
:10200000177F026010937B0000937C000E942F21B9
:10201000AFE5BBE08D939C93A3E6BBE00D911C91D3
:10202000A1E6BBE04D915C91041B150BA1EBBAE05E
:102030000D931C93A1EBBAE00D911C9142E050E08E
:102040000E94A414A1EBBAE04D935C93A1EBBAE01B
:102050000D911C91A1E6BBE04D915C91040F151F01
:10206000A1EBBAE00D931C93A1EBBAE04D915C910A
:10207000AFE5BBE00D911C91041715070CF402C0ED
:102080000C94581082E080936D0BEAE5FEE40E9408
:102090006E210E941D15A8E4B6E1EFE5FBE00E9469
:1020A000F9210E9415150E942415129A0C946C10A7
:1020B00081E080936D0BE4E8FEE40E946E210E94B3
:1020C0001D15A8E4B6E1EFE5FBE00E94F9210E94AE
:1020D00015150E942415119AEEEAFEE40E946E2165
:1020E0000E941D150E94241581E090E0A1EBBAE04A
:1020F0008D939C93A1EBBAE00D911C91043650E0B6
:1021000015071CF011F00C948F108AE090E00E94EB
:102110000316A1EBBAE00E9490140C947A100E946E
:1021200024151298119881E090E0A1EBBAE08D930C
:102130009C93A1EBBAE00D911C91083C50E015076F
:102140001CF011F00C94EE1000917C00007E1091B8
:102150007B00177F026010937B0000937C000E943D
:102160002F21AFE5BBE08D939C93A1EBBAE00D91DD
:102170001D9117FB1EF42FEF3FEF02C022273327DC
:1021800045E050E060E070E00E940621A3EBBAE079
:102190000D931D932D933D93A8E4B6E1E3EBFAE094
:1021A0000E94F6210E941515E6EEFCE40E946E21C5
:1021B0000E941D15A8E4B6E1EFE5FBE00E94F921BD
:1021C0000E9415150E94241584E090E00E940316D9
:1021D000A1EBBAE00E9490140C9499100E943D1556
:1021E0008FE711E00E945015E6EBFEE40E946E219D
:1021F0000E9436158FEB11E00E945015E4ECFEE4CE
:102200000E946E210E9436157C9B0C940D118AE071
:1022100090E00E9403160C9404117C990C94161102
:102220008AE090E00E9403160C940D1100916D0B52
:10223000013011F00C94321182E080936D0BEAE5CD
:10224000FEE40E946E210E941D15A8E4B6E1EFE5B0
:10225000FBE00E94F9210E9415150E942415129A94
:102260000C94461181E080936D0BE4E8FEE40E943B
:102270006E210E941D15A8E4B6E1EFE5FBE00E9487
:10228000F9210E9415150E942415119AE1E0F0E051
:102290000E9460151298119881E090E0A1EBBAE0DD
:1022A0008D939C93A1EBBAE00D911C91083C50E0FA
:1022B00015071CF011F00C94A71100917C00007E12
:1022C00010917B00177F026010937B0000937C00CD
:1022D0000E942F21AFE5BBE08D939C93A1EBBAE068
:1022E0000D911D9117FB1EF42FEF3FEF02C0222727
:1022F000332745E050E060E070E00E940621A3EB48
:10230000BAE00D931D932D933D93A8E4B6E1E3EB62
:10231000FAE00E94F6210E941515E6EEFCE40E9408
:102320006E210E941D15A8E4B6E1EFE5FBE00E94D6
:10233000F9210E9415150E94241584E090E00E9466
:102340000316A1EBBAE00E9490140C9452110E9463
:102350003D158FE711E00E945015E6EBFEE40E9468
:102360006E210E9436158FEB11E00E945015E4ECAF
:10237000FEE40E946E210E9436157C9B0C94C611CF
:102380008AE090E00E9403160C94BD117C990C9495
:10239000CF118AE090E00E9403160C94C6110091C0
:1023A0007C00007E10917B00177F026010937B0001
:1023B00000937C000E942F21AFE5BBE08D939C939E
:1023C000E2EDFEE40E946E210E941D15A8E4B6E134
:1023D000EFE5FBE00E94F9210E9415150E942415EB
:1023E00000916D0B013011F00C940912E2EEFEE445
:1023F0000E946E210E941D15A8E4B6E1EFE5FBE006
:102400000E94F9210E9415150E942415119A0C941E
:102410001A12E6E0FFE40E946E210E941D15A8E456
:10242000B6E1EFE5FBE00E94F9210E9415150E943C
:102430002415129A81E090E0A1EBBAE08D939C9371
:10244000A1EBBAE00D911C91043650E015071CF089
:1024500011F00C94711200917C00007E10917B00B1
:10246000177F026010937B0000937C000E942F2155
:10247000AFE5BBE08D939C93A1EBBAE00D911D916C
:1024800017FB1EF42FEF3FEF02C02227332745E052
:1024900050E060E070E00E940621A3EBBAE00D93EB
:1024A0001D932D933D93A8E4B6E1E3EBFAE00E947F
:1024B000F6210E941515E6EEFCE40E946E210E94B2
:1024C0001D15A8E4B6E1EFE5FBE00E94F9210E94AA
:1024D00015150E942415A1EBBAE00E9490140C94EB
:1024E0002012119812980E943D158FE711E00E946A
:1024F0005015E6EBFEE40E946E210E9436158FEB2C
:1025000011E00E945015E4ECFEE40E946E210E944E
:1025100036157C9B0C9492128AE090E00E94031680
:102520000C9489127C990C949B128AE090E00E9492
:1025300003160C94921200917C00007E10917B0097
:10254000177F026010937B0000937C000E942F2174
:10255000AFE5BBE08D939C93E8E2FFE40E946E211F
:102560000E941D15A8E4B6E1EFE5FBE00E94F92109
:102570000E9415150E94241500916D0B013011F079
:102580000C94C512129A0C94C612119A81E090E034
:10259000A1EBBAE08D939C93A1EBBAE00D911C9155
:1025A000043650E015071CF011F00C941D13009137
:1025B0007C00007E10917B00177F026010937B00EF
:1025C00000937C000E942F21AFE5BBE08D939C938C
:1025D000A1EBBAE00D911D9117FB1EF42FEF3FEF19
:1025E00002C02227332742E050E060E070E00E9402
:1025F0000621A3EBBAE00D931D932D933D93A8E420
:10260000B6E1E3EBFAE00E94F6210E941515E6EE32
:10261000FCE40E946E210E941D15A8E4B6E1EFE5DE
:10262000FBE00E94F9210E9415150E942415A1EBE0
:10263000BAE00E9490140C94CC12119812980E9447
:102640003D15E2E4FFE40E946E210E943615A8E4E5
:10265000B6E1E1EBFAE00E94F9210E942E158FEB22
:1026600011E00E945015EEE4FFE40E946E210E94EA
:1026700036157C9B0C9442138AE090E00E9403166E
:102680000C9439137C990C944B138AE090E00E94CF
:1026900003160C9442130C945102A5E7BBE0882763
:1026A0008C93A5E7BBE0BA93AA930E94D11322961C
:1026B000A5E7BBE08C91803011F00C9461130C9471
:1026C000CF13A5E7BBE00E949122082F013018F03C
:1026D00011F00C946D130C948A13A5E7BBE00E94D3
:1026E0009122A1EBBAE08D9388278C93A1EBBAE0FD
:1026F0000D911C9101501040A1EBBAE00D931C9379
:10270000E5E7FBE00091B10AA5E7BBE00E94682283
:102710000C949413EEE5FFE40E946E210E941D15B7
:102720000E9424150C94CF13E5E7FBE0A5E7BBE07E
:102730000E945C21A5E7BBE0E2E7FFE40E946E2176
:102740000E94972211F00C94C313E4E7FFE40E9467
:102750006E210E941D150E9424150E942415EEE78B
:10276000FFE40E946E210E941D150E942415EEE9CF
:10277000FFE40E946E210E941D150E9424150E94F4
:1027800024150C94CF13EAEBFFE40E946E210E9403
:102790001D15A5E7BBE00E9417150E9424150C9497
:1027A000CD02A4E6BDE088278C9380E090E0A7ED01
:1027B000BBE08D939C93A7EDBBE00D911C91003283
:1027C0005EE415070CF402C00C9429140E94EB146B
:1027D000082F003018F011F00C94F0130C941B1417
:1027E0000E94F114A3E8BDE08C930091830D003F9B
:1027F00011F00C940114A4E6BDE088278C930C948E
:102800002914A3E8BDE08C91A4E6BDE00E94E41485
:102810008D9388278C930091830D0D3011F00C94CB
:1028200013140C94291480E090E0A7EDBBE08D9385
:102830009C930C942714A7EDBBE00E949014EF9397
:10284000FF93ECE3F6E00E94EE15FF91EF910C94FC
:10285000DB13A7EDBBE00D911C910F315EE4150772
:102860001CF011F00C9436140C944414E0EDFFE4C9
:102870000E946E210E941D150E942415A881B98115
:1028800088278C930C946B1481E00E94F620E4E678
:10289000FDE0A881B9810E945F22A881B98181E011
:1028A000481A80E0580A22968C91803011F40C94DA
:1028B0006B14ECEDFFE40E946E210E941D15A4E64E
:1028C000BDE00E9417150E942415E4E6FDE0A881F2
:1028D000B9810E9449220895A8E4B6E1EEEDFFE433
:1028E0000E946E210E942921A8E4B6E1E4E8FDE0FF
:1028F0000E947819A4E8BDE08C91803011F40C940A
:102900008D14A4E8BDE00E9417150E942415E4E888
:10291000FDE00E94A0190C947A14ED9A0C94CD025B
:10292000ED91FC91EF5FFF4FFC93EE930895ED91D5
:10293000FC91E150F040FC93EE93089509D00E9481
:10294000FC2000FC10D0089503D024D001F8F9CF6A
:102950000024E89457FF02C009D0689400F80BD017
:1029600010F80124089502D009D00895509540959B
:102970004F5F5F4F0895E89417FF089500951095F5
:102980000F5F1F4F6894089599231AF480959095CE
:1029900001960895352F242FE894452B11F468945F
:1029A0000895512F402F0027112780E1440F551F14
:1029B000001F111F021B130B416018F4020F131F9D
:1029C0004E7F8A9599F708958F938D918823E9F723
:1029D00011978F9108958091630C882309F081E00D
:1029E00008950F929F93AF93BF937F938091630C51
:1029F0008823E1F3F8948091630C8A958093630CAB
:102A00009091610CA9E3BCE0A90F0024B01D8C914A
:102A10009395983209F499279093610C78947F915B
:102A2000BF91AF919F910F900895A8E4B6E18D9169
:102A3000882311F00CD0FBCF08950E944621802DF1
:102A400011F005D0FACF08958DE001D08AE0009012
:102A5000C00005FEFCCF8093C6000895A8E4B6E14F
:102A60008D91882311F07DD0FBCF08950E944621DF
:102A7000802D11F076D0FACF089581E083D026D052
:102A800080E880D088278093AD0D08958FE72130AE
:102A900039F08FEB223021F083E9233009F083ED08
:102AA000810F87FF08C083FF06C0804C282F204479
:102AB0002093AD0D03C020482093AD0D0C94C2159A
:102AC00088EE93E0A0D03197D9F7089583E0992755
:102AD0009AC08AEF90E00E940316279A269A259AB8
:102AE000249A239A229A2A9885E090E00E9403165D
:102AF0002B982F982E982D9A2C9A2B9AEF93FF9320
:102B0000ECE8F1E00E94EE15FF91EF912B9878D060
:102B10002B9AEF93FF93ECE8F1E00E94EE15FF9102
:102B2000EF912B986DD02B9AEF93FF93ECE8F1E0A7
:102B30000E94EE15FF91EF912B9862D02C982B9A62
:102B4000EF93FF93ECE8F1E00E94EE15FF91EF9117
:102B50002B9856D088E216D08EE014D086E012D0A2
:102B600008959091AD0D93959093AD0D993021F40A
:102B70008F9380EC07D08F912A9A829505D004D04C
:102B80003FD008952A98F9CF859510F42C9A01C06A
:102B90002C98859510F42D9A01C02D98859510F4E8
:102BA0002E9A01C02E98859510F42F9A01C02F9867
:102BB0002B9AEF93FF93ECE8F1E00E94EE15FF9162
:102BC000EF912B98089537FF089500951095209563
:102BD00030950F5F1F4F2F4F3F4F08953197F1F7FB
:102BE0000895219A23982B9A229A8DE58CBD0895F9
:102BF00008950895689462F80895E89462F8089535
:102C000081E090E000C0EF93FF93EE27E82BE92BE3
:102C100031F0E0EAFFE03197F1F70197D1F7FF914A
:102C2000EF910895689401C0E8948F939F9397E97A
:102C3000000000009A95E1F798948091B00D909172
:102C4000B10D1EF4019708F401968093B00D909396
:102C5000B10D59F08091AE0D9091AF0D019708F430
:102C600001968093AE0D9093AF0D9F918F91089533
:102C700000E440E050E060E070E088C008E44AEA28
:102C800051E0F9CF09E482C00AE480C000E540E0E9
:102C900052E0F1CF01E57AC008E578C00AE7E9CF54
:102CA0000DECE7CF09EEE5CF09EE40E050E060E043
:102CB00070E46CC0C0D0702FBED0602FBCD0502F3D
:102CC000BAD0402FB8C00E94F11500240ED10027C1
:102CD00000930102AED088EE93E0A6DF11F499EEE6
:102CE00016C10197D1F70AE00F93A5D00F910A956D
:102CF000D9F7BEDF013069F000E4A0D000279ED0F4
:102D000000279CD000279AD0002798D005E996D0BC
:102D1000DECFB4DF013009F01FC0CCDF513011F439
:102D20004A3A11F09AEEF3C0BFDF003021F07CDFA9
:102D3000D9F79BEEECC0B2DF003021F075DFD9F798
:102D40009CEEE5C0B7DF84E08093010276FF1DC0F2
:102D50008CE08093010219C0A5DF023028F081E0E9
:102D60008093010201E404C082E08093010209EE35
:102D70000F937FDF00230F9121F056DFC9F79DEEFF
:102D8000C6C084DF002309F0A2CFBAC011E000342E
:102D900009F415E9083409F417E807FF14C00F9384
:102DA0001F934F935F936F937F9307E762DF7F914A
:102DB0006F915F914F911F91802F0F910F7782300C
:102DC00010F0082F1EC035D02FDF31D01DD011F0EC
:102DD00008EE17C033D0072F31D0062F2FD0052F84
:102DE0002DD0042F2BD0012F29D02F9324E623D0D0
:102DF000189407FF05C018DF11F02A95C1F79894C1
:102E00002F910093030208950F938F939F9380E176
:102E100097E28093B00D9093B10D0DD00F3F19F054
:102E200001DFD9F798949F918F910F910895289879
:102E30000895289A08950FEF01C000270EBD0DB523
:102E4000001FE8F70EB5089568D031F04ED03CD0A1
:102E500021DF002311F091EF5AC0EDDF0E3F21F08A
:102E6000E3DED9F792EF53C092E08827E4DF0193C5
:102E70000197E1F7E0DFDFDF43C04FD031F035D01D
:102E800023D00ADF002311F095EF41C0BDDF11F020
:102E900096EF3DC00EEFD2DF0D3F11F497EF37C034
:102EA00092E088270191CADF0197E1F7C4DFC3DF11
:102EB000C2DF0F7100930402053029F00093030272
:102EC0000695086F24C01CC04091010243FD08C054
:102ED00044275D916D917D91550F661F771F089571
:102EE0004D915D916D917D9108958F939F9380E2B7
:102EF0009EE48093AE0D9093AF0D9F918F910895B6
:102F000098DF99DF992788949093020208959F9300
:102F100090DF91DF9F910894F7CF90910102992360
:102F200092EE0895EDCF91EEF2CF91EEF0CFF5DF76
:102F300029F0DBDFA7DE002319F096EE0C9487174B
:102F4000E8E4F6E178DF0E3F29F06EDEC9F797EE90
:102F50000C94871790E080E16EDF01930197E1F711
:102F60006ADF69DFCDDFE8E4F6E19091010291309C
:102F700081F08081807C803461F437813F732085CB
:102F8000118500271F5F2F4F3F4F110F221F331F47
:102F90001AC033272681237017810085007C005CCE
:102FA0001F4F2F4F818583709285990F881F11F0D5
:102FB00011D0F1F785818F7086500CD0F1F7012F79
:102FC000122F232F3327E881F98101931193219345
:102FD00031930895000F111F221F331F8A95089502
:102FE0009CDF29F082DF4EDE002319F096EE0C9470
:102FF0008717E881F9811FDF0E3F29F015DEC9F739
:1030000097EE0C94871790E080E115DF019301970C
:10301000E1F711DF10DF74CF80DF29F066DF34DEE7
:10302000002319F096EE0C948717E881F98103DFED
:103030000E3F29F0F9DDC9F797EE0C94871790E061
:1030400080E1F9DE01930197E1F7F5DEF4DE58CF78
:1030500064DF29F04ADF22DE002319F096EE0C949B
:10306000871728DEE881F981719361935193419329
:1030700047CF53DF29F039DF13DE002319F096EE36
:103080000C948717E881F981D6DED5DE0E3F29F052
:10309000CBDDC1F797EE0C94871790E080E4CBDE90
:1030A00001930197E1F7C7DEC6DE2ACFE9E0F2E03F
:1030B000ABE8B8E0992791931197E9F70895E89460
:1030C000843059F0863049F0803039F068948B3084
:1030D00021F08C3011F093E1B6C200900B0200F8A1
:1030E00000920B0288940895E1E7F4E033D245554D
:1030F0005A4A09F40895A7C28A93D8DFE1D2C0F0F2
:1031000091E1F2DFA8F088818823F9F0E1E3F4E0AF
:103110008A9511F07096FCCF80818F7721F43496D8
:103120008081CDDF38F48881823078F093E18BC2E2
:10313000219689C280930A023496AEE6B2E024D288
:10314000BFD288F392E1D0DF98F38991EEE7F2E005
:1031500001D24050524094E1F9F4A1E8B2E0F7D135
:10316000AEE6B2E0CAD1C0D1ACE0B2E0DAD1A9E8B3
:10317000B2E0EBD14050504019F4A7E9B2E0C7D11A
:10318000E1E1F2E0D8D1809183028093100296E1D0
:10319000882311F0833008F056C2A8D181FDA6D152
:1031A000A5E1B2E0BED1A4E8B2E0D1D1A9E1B2E09C
:1031B000D4D184E0DFD198D1ABE1B2E0B2D1AEE6B8
:1031C000B2E0A5D10E94DB21CBD1E6E8F2E0B8D194
:1031D0000050104019F4E3E9F2E094D10E94DB21A1
:1031E0008091800280931F0295E18823A9F2869541
:1031F000F0F791F6BED072D1A0E2B2E092D1009089
:103200000B0200FA80910A02882379F4E89486E0A0
:103210000F5F164F2040304010F068948BE8809389
:103220000A02992790F990930B023EF4AFE9B2E0BD
:1032300064D1B4D0A5E1B2E074D182E080932402DD
:10324000A5E1B2E05AD1ACE2B2E06BD1A2E3B2E0C8
:1032500068D101C226D4D8F072D3D1F48F9398E00C
:1032600032D48F9120F4923481F498E012C0FA9312
:10327000EA93908D95FD07C0A4D18F9398940E94F6
:103280008F1F8F9108F0E6C1229688270894089531
:10329000DEC18F9372D48F9108F0DDC18827089525
:1032A000EED330F0FA93EA9305D408F0D3C1D9C134
:1032B000089548E005C044E003C042E001C041E099
:1032C0005527DDD3A0F090E2E7D588F0FA93EA9392
:1032D00056F45F934F93BF93AF9320D6AF91BF91B6
:1032E0004F915F9118F0A9D608F0B4C1BAC1089502
:1032F000FF93EF9324D347D258F0FF93EF93E4E585
:10330000F2E0A6E3B2E08CE040D1EF91FF91889427
:10331000AF91BF9130F488278C93923409F49BC10C
:1033200008953DD30E94592211978EE28D933DD38B
:103330000E945922ECE6F2E0AEE4B2E086E025C15C
:10334000FF93EF93E3D2E4CF802FC8D090911B027C
:10335000891B982F8395892790911F02892311F447
:1033600088940895C5D005D02ED008F4089516D0BD
:10337000F7CFEBE1F2E0D0D00E94DB2172F0809138
:103380001F0280FD06C036952795179507958695EF
:10339000F8CF0E5F1F4F2F4F3F4F089580911F02B0
:1033A000025010402040304080FD06C0000F111F29
:1033B000221F331F8695F8CFEBE1F2E0ADD00C94DD
:1033C000D6210BD1D6DFACE0B2E0A1D000900B0249
:1033D00000FE04C0000F111F221F331F0F93012F87
:1033E000122F232F33270E94D6216FD18F91E8F01F
:1033F00000900B0200FA9927880F991FE80FF91F18
:10340000222733270191119136F4219131913F7098
:1034100032976FEF7FE0329748EF5FEF04171507A1
:1034200016F42607370710F091E20DC114C151D0F0
:1034300002E0A02E442755276627772704C0A4E280
:10344000B2E05BD0AA243F932F931F930F937F93F7
:103450006F935F934F93AF92B6DFAF904F915F91B1
:103460006F917F910F911F912F913F91A0E2B2E058
:10347000CD90DD90ED90FD9010F4913249F5C0169D
:10348000D106E206F30618F199278191982B8191D4
:10349000982B2EF48191982B81918F70982B31F479
:1034A000A1FE0EC04F5F5F4F6F4F7F4F802F912F58
:1034B00015D09127969516F48027880F00F7C3CF73
:1034C00032970EF43297A4E2B2E02BD0C4C092E25D
:1034D000BAC0002711272227332708950F5F1F4FF7
:1034E0002F4F3F4F08955527662777270C94D621F5
:1034F000015010402040304008950D911D912D91B4
:103500003D910895019111912191319108954D912D
:103510005D916D917D91089541915191619171916C
:1035200008950D931D932D933D9308950193119349
:103530002193319308954193519361937193089529
:1035400022273327019111910895662777274D91FE
:103550005D9108954191519108954D935D93089522
:10356000402F512F622F732F08950050104020409C
:1035700030400895569547958A95E1F70895440F90
:10358000551F8A95E1F7089584E09F9391919D934B
:103590008A95E1F79F910895E881F9810895A881BE
:1035A000B98118960895E881F9813C960895E881DB
:1035B000F9813896BBCFE881F9813896A3CFF3DF44
:1035C000B5CFF1DF9FCFEFDFA7CFA881B9811C96E0
:1035D0000895E881F98174960895FBDF93CFE8811F
:1035E000F981808D0895E881F98170960895FBDF57
:1035F00089CFF9DF91CFF7DF99CF00900B0200FA66
:103600008FEF819381931EF481938FE0819342C069
:1036100000900B0200FA0193119316F42193319359
:1036200039C0E881F98179960895D3DF7FCFA881E9
:10363000B981549608950F900F900F900F900F90AE
:103640000F90089522960894909309020895882770
:1036500099E4F9CF2296889490E0F6CF2296889448
:10366000089522960894089580EA01C084E8E881CC
:10367000F9819F93908D892B808F9F910895E88188
:10368000F9819F93908D80958923808F9F910895D4
:1036900088E0EDCF80917704886080937704089567
:1036A0008091720288608093720208950E942417AC
:1036B00008F0D1CFC8CF0E943D1708F0CCCFC3CFC0
:1036C000AEE6B2E0E3E7F2E0F1CF80E1A3E7B4E0F9
:1036D00006C080E0AEE6B2E002C0A9DF80E817DFF6
:1036E0000E94E02131F4E8941196EA2FFB2F159700
:1036F000B6CF9D91EA2FFB2F792F777E872B8E9364
:10370000149793FF18C00F931F932F933F939F938A
:10371000AF93BF93D0DFBF91AF919F91A8F094FF7B
:1037200006C0AF93BF93A5D3BF91AF9168F03F910F
:103730002F911F910F91F5DED7DFEF93FF93B6DF47
:10374000FF91EF916894089578CF49DF8670B1F4C6
:103750004EDF00271E7F442752E0C6DE4CDF3FDFEE
:10376000867061F43ADFF0DD20F061DFB6DF38F01B
:1037700088C2913221F47ADF91E265CF91E063CF84
:10378000DED009F065CFFA93EA93A5D008F469CFAB
:1037900083858F3099F0827C89F480818E3271F03C
:1037A000853E61F08030D1F0A881B9819C919F3332
:1037B00011F0981303C07BE0B5D0A1F0B09681E082
:1037C000480F25F78827581F5F934F930FD008F0B5
:1037D00080DF4F915F91D0F6903C08F492E4E9913C
:1037E000F99131CFACE6B2E0B8DE34CF00900B02F5
:1037F00000FC19C0ACE2B2E080DEA5E1B2E05F936C
:103800004F9385DE0E94E0214F915F9161F4A9E121
:10381000B2E06D917D914617570710F091E313CFF9
:103820000FD05CDE18CF0CD03F932F931F930F93D4
:103830008BDD08F002CF0F911F912F913F910895DA
:10384000AEE6B2E05ACE4FD008F43CC08081853E4F
:1038500081F1803071F1B09681E0480FBDF7882783
:10386000581F5F934F93C2DF08F033DF4F915F9192
:1038700068F7913239F55F934F937BDD3F932F9338
:103880001F930F93DCDDF8F0B8DE6ADE0F911F9115
:103890002F913F917F936F935F934F9394DD0F919F
:1038A0001F912F913F9180F4913281F4B1DE9FD22C
:1038B000DDCFACE6B2E051DE20DEA0E3B2E04DDECB
:1038C00030DEC9CEC0CEB7CE93E2BDDEB8CEA88181
:1038D000B98112960AC044275527ACE2B2E006C06F
:1038E000AEE4B2E002C0A0E3B2E031DE06DE5A93FD
:1038F0004A93EFDE50F048814F70552785E03FDE58
:10390000E40FF51F49915991A6CEABCEAEE4B2E0DB
:10391000ECDFFF93EF93E6E3F2E0FA93EA93EF91A3
:10392000FF914CCFFF93EF9381919D919F3311F0C5
:10393000891711F47A95C1F7EF91FF910895E4E5A5
:10394000F2E08F93E89499277BE0AEF08D918A3274
:1039500019F48FE368940FC08E3239F4733011F488
:10396000E894F3CF80E2689406C0803011F480E2DE
:103970000CC00E94622181938F3309F493957430B7
:1039800009F4E8947A9509F704C080E281937A9566
:10399000E9F780E081933C9799238F91089588E01F
:1039A000F4DD389788278D930895389683E0EDDD10
:1039B0003B9788278D930895928D9D93938D9D932A
:1039C00000900B0200FE05C094899D9395899D93FC
:1039D000089599279D939D9308957C96D5DDB09782
:1039E0000895882311F49AE42ECE32E0E8E7F6E059
:1039F000E8942081222329F4D6F0EE2EFF2E68943D
:103A000016C0281771F1EF93FF938F9380F98F936E
:103A100086E03296ACE6B2E0BDD38F9180FB8F9109
:103A2000FF91EF9121F41181192310FF1CC03A95E9
:103A300019F0E65EFD4FDDCFC6F4EE2DFF2D18D058
:103A400080839183EF93FF938F9386E03296AE2F1E
:103A5000BF2FECE6F2E086E098DD8F91FF91EF91C9
:103A6000FACD95E4F0CD96E4EECD94E4ECCD94DD82
:103A700009E1002401920A95E9F7799708958823CE
:103A800069F072E0E8E7F6E09081981749F07A95DE
:103A900019F0E65EFD4FF8CF93E4D5CD9AE4D3CD8F
:103AA000089580E8ECDF28F08395E1F791E488271A
:103AB000CACDD1CD71DD02C0E2DF20F081E0D7DDDB
:103AC0006ED1D5CF08958F939F935DDE7F918F91B7
:103AD000E8F0972F6385692760FF03C0692760FDC1
:103AE00018C0FF93EF937DDFFA93EA93EF91FF9174
:103AF00068F06BDD72DF53DD5FDF5DDD36DD39F0F1
:103B00004DDCEBDD40F0BDD06ADDA8CD0895ACDD25
:103B1000FBCF98E498CDA5CDE881F9819181917290
:103B200051F1E881F981808D81FD23C07096EADC36
:103B3000912F802FD3DC3497F9DCE881F9813C9612
:103B4000EBDC0E94E02130F0389670817260719356
:103B5000112704C0E881F981799619279170E80F3F
:103B6000F91F8081169521F08F93F9DD8F910895CB
:103B700072CD91E068CD92E666CDFF93EF938F937F
:103B80009F9311C0FF93EF938F939F9339D058F475
:103B9000923451F508C0FF93EF938F939F93F3DD19
:103BA00008F5923409F54FDE00F121D09F918F91F5
:103BB000FF93EF9316DFAF91BF91C0F0FA93EA93B2
:103BC000EF91FF919F938BE0E0DC9F919170906269
:103BD0009D931296BFD21496BDD262DD45DDE99168
:103BE000F99139CD92E32FDD089427CD28CD85EECC
:103BF000819388279FE181939A95E9F7B09708957B
:103C000009F025CDC0DD80F183858F7D11F093E330
:103C10001ACDFF93EF9358D0EF91FF9128F1FF93C6
:103C2000EF9323D0EF91FF9185EE808339DD22273A
:103C30003327028D138D00900B0200FE02C02489F1
:103C4000358993DC79F017D0BEDB80E081938193D6
:103C500016F4819381931EDDB0F7913221F4EED0FA
:103C600018F0FDC0FCC008940895ECE6F2E0A0E373
:103C7000B2E086E08DC2E0E1FF27A4E2B2E084E09A
:103C800087C29FDCB6DC0E94E021C2F0C9F030DCC4
:103C9000732761F4622751F45127569539F491DC6A
:103CA000A8DC0E94DB2184E0E2DCD5CC00E012E05D
:103CB00086E0E5DCD0CC84E0DADCCDCC91E601C056
:103CC00091E086E0D4DCBFCC72E0E8E7F6E08081EA
:103CD000882351F0FF93EF933296ACE6B2E086E092
:103CE00059D2EF91FF9129F07A9529F0E65EFD4FC8
:103CF000EECF97E4A8CCAFCC70DC26DB28F06FDCED
:103D000081FFEBCC92DC91C09132F9F498DBE8F0C2
:103D10008FEF8193819300900B0200FE03C081938B
:103D20008FE08193B7DC0F931F932F933F9349DB71
:103D30003F912F911F910F9130F4913221F48BDC40
:103D400067DC2CDBDCCF93E27ECC089578DB30F1AE
:103D50008FEF8193819300900B0200FE03C081934B
:103D60008FE0819397DC3F932F931F930F931FDC7A
:103D7000AEDD0F911F912F913F9180F0028F138F35
:103D800000900B0200FE02C0248B358B89DC06DB21
:103D90004CDC9FDB30DC80E272DC889408951FDC11
:103DA00083FF09C016DCAE2FBF2F34968081877F3A
:103DB000819381DCD0F013DC86FF18C087FF02C03E
:103DC00080FF14C084DD88F0AE2FBF2F1B968C912E
:103DD00080628C93519681E452DCF3DBA2DB1A976C
:103DE000B9D15EDC3CD008F029C0089534CCD6DAD5
:103DF00080911F028F936DDC18F018D051DC8894ED
:103E00008F9190F08A9529F0EEE6F2E07BDB66DB9D
:103E1000F1CF40911F024A9531F0EEE6F2E072DBFD
:103E2000041B67DB56CC17CC0895FBDB772792E0A9
:103E300080E071930197E9F7F2500DCC80E1A3E7A0
:103E4000B4E0E7E7F4E0908193FF08958193BF9396
:103E5000AF9331DCAF91BF9108F408950AC080E0C0
:103E6000AEE6B2E0E2E7F2E0908193FF089581933D
:103E700022CCE0E1F2E0819181FF08954DDB3DDB52
:103E8000EA2FFB2F31960E94D621A8E2B2E049DB4F
:103E9000149711CCE881F981092E9181902111F0BC
:103EA0008894089592E6CFCBE881F98191819A7246
:103EB00079F1E881F9818F93908D95FF06C046DFF7
:103EC00048F1B3DFE881F981908D70961BDBF12E0C
:103ED000E02E04DB34972ADBE881F9813C961CDB79
:103EE000401751076207730718F434971FDB926479
:103EF0001F259860E881F981789691939F2D9170A4
:103F0000EE0DF91F8F918193169531F048DFF4CEB5
:103F100092E699CB8F91089588940895E9DA332336
:103F200012F493E690CB19F45ADB85FD94CB4BDB6E
:103F30000E94E021C1F1A8F53F932F931F930F93A7
:103F4000AED05C2D6D2D7E2D4F9351DBA8D045DB7F
:103F50007F936F935F930DDA5F916F917F915C1503
:103F60006D057E0528F089F05C196D097E0901C098
:103F700022DB51506040704040F07F936F935F931D
:103F800022DA5F916F917F91A0F708DA4F91ABDA57
:103F9000A4DBC8F00F911F912F913F912CDB71DEB4
:103FA0005ACB91E650CB002339F6812F817021F650
:103FB0009FDAB5DF40F01BDB91DA1DDB9DDE20F4DC
:103FC000913011F0089408950ADB81FD2ECF43CB88
:103FD000BF93AF93442755278D91882319F04F5FE6
:103FE0005F4FD1F7AF91BF916EC08DE05DDF10F0F4
:103FF0008AE05ACF08950E94462141F0802DFF9318
:10400000EF9352DFEF91FF9110F0F5CF8894089570
:10401000A8E4B6E10E9400220AC0A8E4B6E10E942A
:10402000F92105C0A8E4B6E10E94F62100C0A8E489
:10403000B6E1CECF91E22EDF70F1D1DA81FD2CC056
:104040005F934F9375D04F915F9130F1662777273B
:104050000E94E02110F4402F512F61D04150504078
:10406000B8F00F3F81F410FF0EC0C5DABF93AF93D5
:104070005F934F9356DD4F915F91AF91BF9158F091
:10408000B6DACFDA03C00F5F1F4F81918D93E6CF71
:10409000B2DA4ED0E0CA0895E9DA91E0D4CA80914C
:1040A0001F02369527951795412F90E0869530F0A1
:1040B0003695279517950894991FF8CFC12ED22EC3
:1040C000E32E492308959AE2E5DE40F128D04150DD
:1040D0005040B8F08D9195FD04C00F3F71F410FF72
:1040E0000CC089DABF93AF935F934F93E2DE4F9199
:1040F0005F91AF91BF9190F0E9CF81930F5F1F4F18
:10410000E6CFC6DA60DA401751076207730718F482
:1041100056DA80E4ACDA6FDA0BD09DCA08953CDA47
:10412000908D65DA7EDA712F7170E00FF71F0895B8
:10413000E881F981808D45DA5CDA2EDA0E94DB2194
:1041400028F021F08D7F808F889408958660808F7D
:104150000894089581E0AA24BB24C82ED82EE82E06
:10416000F82ECC0CCC0CCC0C8827B6948795B69442
:1041700087958A29B6948795BC288D93BD9284E152
:104180008F0DE294EE0C881FED28ED928D9308952B
:10419000689401C0E894FA93EA93BA93AA93082E1C
:1041A0008817CFB6A190BD90CFBEAB04CFB68A958D
:1041B000C9F7CFBE46F438F4802DA881B981EA81D1
:1041C000FB81E3D9CFBEA991B991E991F991089505
:1041D0008D9187FB16F48FEF01C088278D938C9308
:1041E00008950191119121913081089599275A9252
:1041F0004A92480E591E08950F92B801469F8001B9
:10420000479F100D569F100D0F9008950F921F920B
:104210002F92C801D901489F80014A9F90014B9F6E
:10422000202C499F100D211D321D5A9F202C589F74
:10423000100D211D321D599F200D311D689F200D2D
:10424000311D699F300D789F300D2F901F900F907A
:1042500008950E9446210D920020D9F7089570918B
:104260007A00706470937A0000907A0006FCFCCFAC
:1042700070917A00706470937A0000907A0006FC66
:10428000FCCF80917800909179000895D89531966F
:1042900028F48F938BB783958BBF8F91002008955F
:1042A00091E005C092E003C094E001C098E0EEDF29
:1042B0000D929A95E1F70895819104D08D9388230A
:1042C000D9F70895813618F08B3708F48F7D08955B
:1042D0000F9301E00BBF0F91889408950F9300276F
:1042E000F9CF0F9302E0F6CF0F9303E0F3CF0F93D4
:1042F00004E0F0CF7F930F93AF93BF938F939F937F
:104300008FB78F938091630C08E2081B29F490917A
:10431000C6000E94FA1513C00091620CA9E3BCE02C
:1043200077279091C600A00FB71F9C938395809329
:10433000630C0395083209F400270093620C8F91F7
:104340008FBF9F918F91BF91AF910F917F911895E2
:104350007F930F93AF93BF938F939F938FB78F9359
:104360008091CA0C04E6081B29F49091CE000E94AB
:10437000FA1513C00091C90CA4E6BCE07727909110
:10438000CE00A00FB71F9C9383958093CA0C039512
:10439000043609F400270093C90C8F918FBF9F91B9
:1043A0008F91BF91AF910F917F911895040F151FB9
:1043B000261F371F0895041B150B260B370B089576
:1043C00004171507260737070895000F111F221F2E
:1043D000331F089500951095209530950F5F1F4F5E
:1043E0002F4F3F4F0895019110810CC00E94F12082
:1043F0000BC00191108117FF05C03FEF2FEF04C0E4
:10440000008111272227332737FF03C0E3DF8DE226
:104410008D93CF92DF92EF92AA24BB24CC24DD248B
:10442000EE2440E2EAE0FF2755E093E38081890F24
:1044300087FD9F7083FD907F891B81935A95A9F713
:10444000C4DFAA1CBB1CCC1CDD1CEE1C4A9551F71A
:10445000E894EFE0FF2782910CD0EB30E0F71EF0FC
:1044600068948A2D0AD088278D93EF90DF90CF90A3
:104470000895982F829501D0892F8F70805D26F046
:10448000803309F4089568948D93089588278D9357
:10449000089581918D938823E1F7089594E08191A7
:1044A0008D939A95E1F7089581918032E9F3F2CFE7
:1044B000F0DF11978E918032E9F31196E7CFF4DFA8
:1044C000F8CF09919191992351F08A95D9F73197B5
:1044D000002329F081918D930A958823C9F7D6CFBF
:1044E000F999FECFE1BDF2BD3196089591E001C08A
:1044F00092E07B3751F47FB7F894F2DF8D9180BD65
:10450000FA9AF99A9A95C9F77FBF7727089591E0AB
:1045100001C092E0E5DFF89A80B58D939A95D1F7C6
:1045200008958FEF83959D919923E1F708956894FD
:1045300001C0E894AF93BF938D9116F0919103C0A1
:104540000E944621902D891718F011F48823A1F7B5
:10455000BF91AF910895689401C0E8942227102F6D
:10456000231709F4089526F40E944621802D01C0E6
:104570008191803081F0891741F070E08D931A9518
:1045800091F7239571E01D93EACF01D0E8CF703009
:1045900011F077270895772331F423958827139511
:1045A0008D931A95E9F70895B7FE089590E8B91626
:1045B00011F4D0FE08959FEFD91AE90AF90A09F417
:1045C00003950895D190E190F19001910895219182
:1045D0003191419151910895502F2D2D3E2D4F2D08
:1045E000612F0895EFDF992711278F2D880F80E81D
:1045F000F82A802F881F08F41FEF41F08F57082FEB
:1046000007FD04C0003240F08FEF01C08827982FCB
:10461000D82EE82EF82E09C08FE1801B082FF694C3
:10462000E794D79497950A95D1F7112351F0909577
:10463000D094E094F09481E0980F8827D81EE81E6B
:10464000F81E0F2DFE2CED2CD92E0895652F90E825
:10465000440F551F5927990F47956078102F90E800
:10466000FF0C001F0927990FF79410780038089560
:10467000FF0C90E89027110F9795F794092F089554
:104680002DEC3CEC4CEC5DE366270FC09BDFA4DF18
:10469000DD24EE2490E8F92E0FE307C098DF05C073
:1046A0002227332740E251E46627552351F10023A6
:1046B00081F1CCDF71F11627005850580894050B92
:1046C00018F407FD03C025C007FD23C046953795A4
:1046D0002795F694E794D79425D0FF202AF0DD0C97
:1046E000EE1CFF1C015073F09D2D969548F0DD20C7
:1046F0003AF4EE202AF491E0D90E9927E91EF91E2A
:10470000B7CF07C09FE7092FF92A9FEFD92EE92ECF
:104710000895DD24EE24FF240027112708950FE7D4
:104720009FEFF2CF9F929924AA24BB2488E1D2164E
:10473000E306F40628F0D21AE30AF40A089401C04A
:104740008894991CAA1CBB1CDD0CEE1CFF1C8A95CE
:1047500071F7D92CEA2CFB2C9F90089577DFD9F0C4
:104760005038C9F016270058952F90580894091F03
:1047700012F418F40EC008F00EC00FD0FF202AF07B
:10478000BB0CDD1CEE1CFF1C02C0039513F00CDFFC
:104790006FCF0C9482230C9489239F92FF92EF9207
:1047A0008D2DFF24EE24DD24BB2493E0849F100193
:1047B000829FB00CD11CE21CF31C839FD00CE11C27
:1047C0002224F21C9A9531F0BD2CDE2CEF2CFF2414
:1047D0008F91ECCF9F9008950E944621202D0E943A
:1047E0004621302D0E944621402D0E944621502D09
:1047F00008950E94FD1588278A938A938ADF1127DE
:104800008D918032E9F31197BFD098F08D3229F461
:10481000109511968C91B8D060F08E3229F41196D3
:104820008C91B2D008F44AC022960E94FA1581E019
:1048300008958C91A9D0F8F511964AD0D0F7039538
:104840008D91A2D0E0F38E3229F48C919DD010F49A
:104850001196FBCF853439F0853629F0803011F080
:10486000689462F855C011968C918ED060F08D32AC
:1048700019F08B3221F0D8CF08800094088211966D
:104880008C9182D088F68053898311968C917CD04C
:1048900058F49981990F990F0980900D990F8053C1
:1048A000890F8983873200F68981988199230AF4D8
:1048B0008195080F2DC08E3269F611968C9164D0C7
:1048C00048F606D018F011960A95F8CF1196BDCF8C
:1048D0004F2D3E2D2D2DDD0CEE1CFF1CA8F0DD0C08
:1048E000EE1CFF1C88F0D20EE31EF41E68F0DD0CF7
:1048F000EE1CFF1C48F0805309F06894D80E8827FE
:10490000E81EF81E08F00895F42EE32ED22E089526
:1049100034D019F116F5098308E921D006958827C6
:1049200087959F2D9F77980FF92E0150000F110F3B
:1049300007958981882379F01AF48195898306C0C7
:104940009FDE89818A958983D9F705C0A9DE89818F
:104950008A958983D9F722960895DBDEFCCF0DD0A6
:1049600041F0FF2032F00A9531F0DD0CEE1CFF1C07
:10497000D2F7889408950894089500240D280E28ED
:104980000F28002A00200895803320F08A3310F485
:104990000894089588940895519850985998589873
:1049A0000895509A519803D0509801D0519AEF939E
:1049B000FF93E0E1F0E00E94EE15FF91EF91089582
:1049C000509A519AF4DF5098489BFECFF0DF5198EF
:1049D000EECF0894111F01C0110F69F0509A18F41E
:1049E0000000519802C0519A00C0E1DF5098489BE6
:1049F000FECFDDDFF1CF509A5198D9DF5098489B18
:104A0000FECFE8944999689462F8D1CF0000000085
:104A1000000020415374617274557000486F6C64DB
:104A2000202B20416E74695220746F0052756464AB
:104A300065722041646A75737400475053204E6F4D
:104A40007420726573706F6E64696E6700005354F2
:104A50004152543F202D3E20484F4C4400005748BF
:104A60004954452042495244204155544F50494CE5
:104A70004F540000202020202020202049444C4575
:104A8000000053746172742077697468206D696ED8
:104A90003D0020206D61783D0000527564646572B0
:104AA000204D6F6F766564200000486F6C640000D5
:104AB000486F6C642042746E0000486F6C64204F35
:104AC00046460000484F4C44203D0000205275648B
:104AD0006465723D00004E6F74204F4B00005374AC
:104AE000617274206F66204361726420416E616C54
:104AF0007973697300004C61737420447269766540
:104B00002D4572726F722D436F6465203D20000049
:104B100047626472697665737461747573726567F0
:104B2000203D00004D4D432D436172642064657447
:104B300065637465640053442D436172642053704F
:104B400065632E20312E7820646574656374656416
:104B5000000053442D4361726420537065632E201E
:104B6000322E3020646574656374656400005344BC
:104B70002D4361726420537065632E20322E3020E5
:104B8000486967682043617061636974792064656E
:104B900074656374656400004E6F20436172642025
:104BA00064657465637465640000496E69742046C9
:104BB000696C652053797374656D202E2E2E20004C
:104BC0004572726F723A200020617420496E6974D8
:104BD0002066696C652073797374656D0000204FE1
:104BE0004B0046696C6573797374656D3A200000FB
:104BF00046415420537461727420536563746F721C
:104C00003A200000526F6F74205374617274205305
:104C10006563746F723A2000446174612046697262
:104C2000737420536563746F723A20004D61782E5F
:104C300020436C7573746572204E756D6D6265727C
:104C40003A200000536563746F72732070657220A0
:104C5000436C75737465723A2000526F6F7420450F
:104C60006E74726965733A200000536563746F72E5
:104C70007320706572204641543A20004E756D6273
:104C80006572206F6620464154733A2000004572D9
:104C9000726F7220647572696E67204472697665FE
:104CA00020496E69743A20004E6F205344204361BE
:104CB0007264206465746563746564210000534404
:104CC000204E6F7420726573706F6E64696E67003A
:104CD0002E6C6F670000636F6D6D696E6720626197
:104CE000636B00002C00200020202020494E4954F6
:104CF00020475053202020200000496E6974000096
:104D000024505352463130332C30302C30302C303C
:104D1000302C30312A323400245053524631303353
:104D20002C30322C30302C30302C30312A323600BE
:104D300024505352463130332C30332C30302C3009
:104D4000302C30312A323700245053524631303320
:104D50002C30352C30302C30302C30312A32310090
:104D600024505352463130332C30342C30302C30D8
:104D7000312C30312A3231002450535246313030F8
:104D80002C312C33383430302C382C312C302A3321
:104D9000440024505352463130332C342C312C30C3
:104DA0002C312A32310024004E6F7468696E6720FE
:104DB00066726F6D204750532000244750524D4378
:104DC0002C004175646120002447504747412C0066
:104DD0002447504753562C002E003A005370656507
:104DE000643D00002048656164696E673D002054A1
:104DF000696D653A20004F433D002052543D00004C
:104E00005475726E2052756464657220506F7274AE
:104E10000000484F4C44207768656E20446F6E65F3
:104E20000000202000005475726E20527564646585
:104E300072205354420020202054657374696E67B9
:104E400020527564646572204C616700486F6C6421
:104E5000202D3E20546573740000527564646572A1
:104E6000206F76657273686F6F742054696D65206A
:104E70005374622E20537461727452756464657247
:104E80003D200000527564646572206F7665727310
:104E9000686F6F742054696D6520506F72742E2096
:104EA00053746172745275646465723D200052756A
:104EB0006E6E696E6700436865636B20526561645E
:104EC0004F757400486F6C64202D3E204E657874D9
:104ED00000005374617274527564646572203D20E1
:104EE00000004D6F746F72204D696E2054696D65BE
:104EF00020506F72742E2053746172745275646402
:104F000065723D2000004D6F746F72204D696E20F8
:104F100054696D65205374622E205374617274520B
:104F200075646465723D20004261636B6C617368F7
:104F30002E205374617274527564646572203D2032
:104F400000004261636B6C6173683D200000204883
:104F50006F6C64202D3E20537461727400004E6F9C
:104F6000742076616C696420526573706F6E732172
:104F700000003F00436F6D6D616E64733A004C6FCB
:104F8000673F20284C697374204C6F6746696C65D5
:104F900073206F6E2053442043617264290047657B
:104FA000742027616263642720284C6F672066693C
:104FB0006C65206E616D652900004E6F7420612064
:104FC00076616C696420436F6D6D616E643A200098
:104FD0004E6F20526573706F6E7321003E004C6FF0
:064FE000672A2E2A0000E2
:00000001FF
