:100000000C947200189500001895000018950000D7
:10001000189500001895000018950000189500002C
:10002000189500001895000018950000189500001C
:10003000189500001895000018950000189500000C
:1000400018950000189500001895000018950000FC
:1000500018950000189500001895000018950000EC
:1000600018950000189500001895000018950000DC
:1000700018950000189500001895000018950000CC
:1000800018950000189500001895000018950000BC
:1000900018950000189500001895000018950000AC
:1000A000189500001895000018950000189500009C
:1000B000189500001895000018950000189500008C
:1000C000189500001895000018950000189500007C
:1000D000189500001895000018950000189500006C
:1000E000189500008FEF8DBFC8E3E0EC4E2E81E243
:1000F0008EBFD1E2FFE15F2EA89584B7082E877FDF
:1001000084BF88E199278093600090936000EEEFB0
:10011000FFE1A0E0B2E088278D933197E9F787E609
:100120008093C40080E08093C50088E18093C10083
:10013000662407EF12EC20E030E0AFE6B2E00D936A
:100140001D932D933C9380E18093C40080E08093C5
:10015000C5007091C00072607093C00088E1809308
:10016000C10086E08093C20089E18093CC0080E0EA
:100170008093CD007091C8007D7F7093C80086E0A9
:100180008093CA0088E18093C900869A8E983C9833
:1001900044989A98A29A9898A09885988D9A709168
:1001A0000701706470930701849A8C98389A40987C
:1001B0003D9A459A459884E690E00E94FF03459A4F
:1001C000ECE5FDE00E9454050E94BF030E94C603B7
:1001D000E4E6FDE00E9454050E94BF030E94C603AE
:1001E0000E94AA03082F003018F011F00C94FA00B6
:1001F0000C9411010E94B003A0E0B2E08C93A0E047
:10020000B2E08C91AFE9B2E08D9388278C93EFE94F
:10021000F2E0AFE9B2E00E943D05AFE9B2E00E9432
:10022000DF030E94D003082F003018F011F00C9467
:100230001B010C9425010E94D603A0E0B2E08C9330
:10024000A0E0B2E08C910E94C9030C94F000F894F5
:1002500080E080937902E6E7FDE00E9454050E9469
:10026000E5038DE00E94EF03A0E1B0E0BA93AA930A
:10027000D201E0E8FDE00E9454050E94080585E1F6
:100280000E94020500E513EC20E030E0D2010D935E
:100290001D932D933C9384E00E9402050E94D4029A
:1002A000269689E10E94FE04003011F00C9458015A
:1002B000E4E8FDE00E9454050E94E50382E20E940A
:1002C000EF03A881B9810C91013011F00C947001F9
:1002D000EEE8FDE00E9454050E94E5030C947601CF
:1002E000E8E9FDE00E9454050E94E50382E20E94D5
:1002F000EF038DE00E94EF03A0E1B0E0BA93AA9370
:10030000D201E2EAFDE00E9454050E94080585E161
:100310000E94020500E513EC20E030E0D2010D93CD
:100320001D932D933C9384E00E9402050E94D40209
:10033000269689E10E94FE04003011F00C94A2017F
:100340000C94A1028AE090E00E94FF03E4EAFDE041
:100350000E9454050E94E5030E94EC03AA81BB8120
:100360000E94DF030E94EC03ACE8B2E00D911C9107
:10037000013050E0150781E009F080E08F93AEE88E
:10038000B2E00D911C91003050E0150781E009F0BA
:1003900080E09F918923882311F40C94D501E8EB28
:1003A000FDE00E9454050E94E503AAE8B2E00D9129
:1003B0001C91013050E0150781E009F080E08F9337
:1003C000A0E9B2E00D911C91003050E0150781E0EA
:1003D00009F080E09F918923882311F40C94F601A1
:1003E000E2ECFDE00E9454050E94E503A8E8B2E0BB
:1003F0000D911C91013050E0150781E009F080E07B
:100400008F93A2E9B2E00D911C91003050E01507E6
:1004100081E009F080E09F918923882311F40C94F6
:100420001702E4EDFDE00E9454050E94E503E8EEAA
:10043000FDE00E9454050E94E5030E94EC03EAEEF1
:10044000FDE00E9454050E94E50300917C00007EBF
:1004500010917B00177F016010937B0000937C005C
:100460000E940E05A6E9B2E08D939C93E8E5FDE0BD
:100470000E9454050E949F06E6E9F2E0D190E080D8
:100480008FEFE7FE8827F82E082F0E9411060E94A2
:100490004906EDE0F0E0A8E9B2E00E94BF05A8EA55
:1004A000BFE1AF93BF93E8E9F2E00E94E7050E9445
:1004B0000E0411E002E0BF91AF910E946D05E8EAE1
:1004C000FFE1A8EABFE10E94BA050E94DD03E8EF60
:1004D000FDE00E9454050E94E5030E94EC038AE0BF
:1004E00090E00E94FF038AE10E94EF03A0E1B0E0E8
:1004F000BA93AA93D201E0E8FDE00E9454050E945D
:10050000080585E10E94020500E412E42FE030E0D6
:10051000D2010D931D932D933C9384E00E9402051C
:100520000E94D402269689E10E94FE04003011F058
:100530000C949E020C94A1020C94A10281E0809381
:10054000790280917902AC81BD818C930895A2E0FB
:10055000B2E088278C930E94D003082F003018F057
:1005600011F00C94B5020C94D1020E94D603A0E0C5
:10057000B2E08C93A0E0B2E08C91A2E0B2E00E94E5
:10058000A3038D9388278C93009100020A3011F009
:100590000C94D102A2E0B2E00E94B9030E94C6030B
:1005A00008950C94AB020895F89480E0809379024A
:1005B000A2E0B2E088278C9300E010E020E030E079
:1005C000A3E7B2E00D931D932D933C93E2E0F2E09C
:1005D000AA81BB810E94C70511F40C9477030E9485
:1005E000D003082F003018F011F00C94F9020C948D
:1005F000470300E010E020E030E0A3E7B2E00D9315
:100600001D932D933C930E94D603A0E0B2E08C93FF
:10061000009100020A3081E009F080E08F930091A0
:1006200000020D3081E009F080E09F91892B882342
:1006300011F40C942103A2E0B2E088278C930C946F
:100640002B03A0E0B2E08C91A2E0B2E00E94A303F1
:100650008D9388278C93E2E0F2E0AA81BB810E940F
:10066000C70511F00C944503EAEFFDE00E94540524
:100670000E94BF03A2E0B2E00E94B9030E94C60339
:1006800081E0809379020C9477030C947503EF93C7
:10069000FF93E4E2F0E00E94F603FF91EF91A3E7FD
:1006A000B2E00E949603A881B9814D915D916D9150
:1006B0007C91A3E7B2E00D911D912D913C910E9498
:1006C000B5051CF011F00C9467030C947503E4E07D
:1006D000FEE00E9454050E94BF03AA81BB810E94D4
:1006E000B9030E94C6030C9477030C94E6020E949F
:1006F000D003082F003018F011F00C9481030C94F3
:1007000090030E94D603A0E0B2E08C93EF93FF9396
:10071000E4E2F0E00E94F603FF91EF910C9477037E
:1007200080917902AC81BD818C9308950D911D91CA
:100730002D913C910F5F1F4F2F4F3F4F3C932E93B6
:100740001E930E9308958F938D918823E9F7119747
:100750008F91089581E00090C00007FE88270895DA
:100760008091C00087FFFCCF8091C6000895A8EA61
:10077000BFE18D91882311F00CD0FBCF08950E942A
:100780002505802D11F005D0FACF08958DE001D018
:100790008AE00090C00005FEFCCF8093C60008955B
:1007A00081E00090C80007FE882708950090C800E7
:1007B00007FEFCCF8091CE000895A8EABFE18D919D
:1007C000882311F00CD0FBCF08950E942505802DC1
:1007D00011F005D0FACF08958DE001D08AE00090A5
:1007E000C80005FEFCCF8093CE0008953197F1F745
:1007F0000895689462F80895E89462F80895EF9374
:10080000FF93EE27E82BE92B31F0E0EAFFE0319788
:10081000F1F70197D1F7FF91EF9108958DE207FD70
:100820008D938F2D881F802F881F8F57082F6894D6
:10083000F7F8802F87FF17C080958395082F80E3F6
:100840008D938EE28D93802F815238F080E38D93CB
:1008500099279C930E944905089544270A95802F63
:1008600009F19ED01FC0805230F09EE49D9381E438
:100870008D939D93EDCF4427DF92EF92FF920F93DC
:100880008FE1801B11F0082F8BD091D09EE29D93B9
:100890000F91FF90EF90DF9044270395003209F409
:1008A000D5CF33D03F93E0E4F9E00E94540538E11E
:1008B0002F2D1E2D0D2DFF24EE24DD244427000FA7
:1008C000111F221FB8F42F923F920E942505102C71
:1008D0000E942505202C0E942505302C0E9425050C
:1008E00031970E943605410DD21CE31CF01C3F904D
:1008F0002F9003C033960E942F0531960E942F053A
:100900003A95E9F63F9107D0A5CFDD0CEE1CFF1C10
:100910000A95D9F70895002719E058D08F93802BB6
:1009200011F0039501C08F911A95B9F7802F882394
:1009300009F48CCF8F91805D8D930A95D9F788CF7C
:100940000065CD1D80B2E60E40597307A0ACB90317
:1009500050D6DC01286BEE0094357700CA9A3B0034
:1009600065CD1D00B2E60E0059730700ACB9030057
:10097000D6DC01006BEE0000357700009A3B0000EA
:10098000CD1D0000E60E000073070000B903000053
:10099000DC010000EE000000770000003B000000DA
:1009A000F694E794D79447950A95D1F708950027D0
:1009B0000DD08F9303958F2D8E298D29842BC1F710
:1009C0008F91805D8D930A95D9F742CF1F930F9336
:1009D000002710E2440FDD1CEE1CFF1C001F802FBF
:1009E0009AE0890B10F0082F43951A9599F7802FFC
:1009F0000F911F910895481A590A0895481A882797
:100A0000580A089599275A924A92480E591E0895F5
:100A10000E9425050D920020D9F7089570917A0063
:100A2000706470937A0000907A0006FCFCCF70919D
:100A30007A00706470937A0000907A0006FCFCCF14
:100A400080917800909179000895D895319628F496
:100A50008F938BB783958BBF8F910020089528F4D7
:100A60008F938BB783958BBF8F91089528F48F93C5
:100A70008BB78A958BBF8F910895819104D08D9308
:100A80008823D9F70895813618F08B3708F48F7DC5
:100A900008950F9200240BBE0F9008950F9301E06C
:100AA0000BBF0F91889408950F930027F9CF0F93F0
:100AB00002E0F6CF0F9303E0F3CF0F9304E0F0CF03
:100AC00099278D9193958823E1F7939511968C93AF
:100AD00011978E919A95D1F70895EA2FFB2F002454
:100AE0004C918D9103948E32E1F711248D911394E2
:100AF0008823E1F71A94101640F41197202F21193A
:100B0000239580E38D932A95E9F7113039F59927DC
:100B1000AE2FBF2FA00DB91FA00FB91F8C919C93B2
:100B2000853308F421C031E08E918E32E9F38D32A5
:100B300041F0830F8A3319F480E331E001C0332799
:100B40008C93AE1789F7332341F0AE2FBF2FB8DF58
:100B500081E34D3209F43196808308958827E00DB2
:100B6000F81FE00FF81F8083089504171507260764
:100B70003707089581918D938823E1F7089594E0D4
:100B800081918D939A95E1F70895689401C0E89456
:100B9000AF93BF938D9116F0919103C00E942505EC
:100BA000902D891718F011F48823A1F7BF91AF9108
:100BB0000895B7FE089590E8B91611F4D0FE08958F
:100BC0009FEFD91AE90AF90A09F403950895D1901B
:100BD000E190F190019108952191319141915191CC
:100BE0000895502F2D2D3E2D4F2D612F0895652FE7
:100BF00090E8440F551F5927990F47956078102F9B
:100C000090E8FF0C001F0927990FF794107800381F
:100C10000895FF0C90E89027110F9795F794092FEE
:100C20000895102FBD2CDE2CEF2CF02E11234AF44A
:100C3000B094D094E094F0949FEFB91AD90AE90ADD
:100C4000F90A0EE1FF2039F4FE2CED2CDB2CBB243D
:100C50000850C2F752C032F00A95BB0CDD1CEE1CE6
:100C6000FF1CF9CFA6DFD5CF2DEC3CEC4CEC5DE3BF
:100C700066270FC0ACDFB5DFDD24EE2490E8F92E47
:100C80000FE307C0A9DF05C02227332740E251E464
:100C90006627552351F1002381F1A9DF71F1162751
:100CA000005850580894050B18F407FD03C025C0E0
:100CB00007FD23C0469537952795F694E794D7947A
:100CC00022D0FF202AF0DD0CEE1CFF1C015073F037
:100CD0009D2D969548F0DD203AF4EE202AF491E01F
:100CE000D90E9927E91EF91E94CF07C09FE7092F57
:100CF000F92A9FEFD92EE92E0895DD24EE24FF2452
:100D00000027112708959F929924AA24BB2488E1E3
:100D1000D216E306F40628F0D21AE30AF40A08947D
:100D200001C08894991CAA1CBB1CDD0CEE1CFF1C86
:100D30008A9571F7D92CEA2CFB2C9F9008950E947C
:100D40002505202D0E942505302D0E942505402DCA
:100D50000E942505502D0895C37583425374617216
:100D600074657200466572646967206D656420531E
:100D700074617274000041542B434D47463D31006D
:100D80004F4B000041542B434D47533D0000393039
:100D9000363133353232000039323638343034327D
:100DA00000003E0057686974652042697264204300
:100DB000616C6C696E670000496E6E627275646486
:100DC0000000496E67656E204C616E647374726FCB
:100DD0006D2100004C656E736570756D70652061E6
:100DE0006B74697665727400000042617474657298
:100DF0007920566F6C743D00560057616974666FB8
:100E0000723D000054696D656F7574207761697477
:080E1000696E6720666F720035
:00000001FF
