:100000000C947200189500001895000018950000D7
:10001000189500001895000018950000189500002C
:10002000189500001895000018950000189500001C
:10003000189500001895000018950000189500000C
:1000400018950000189500001895000018950000FC
:1000500018950000189500001895000018950000EC
:1000600018950000189500001895000018950000DC
:1000700018950000189500001895000018950000CC
:1000800018950000189500001895000018950000BC
:1000900018950000189500001895000018950000AC
:1000A000189500001895000018950000189500009C
:1000B000189500001895000018950000189500008C
:1000C000189500001895000018950000189500007C
:1000D000189500001895000018950000189500006C
:1000E000189500008FEF8DBFC8E1E0E64E2E81E24B
:1000F0008EBFDEE1F6E15F2EA89584B7082E877FDC
:1001000084BF88E199278093600090936000EEEFB0
:10011000FFE1A0E0B2E088278D933197E9F76624EC
:100120000B9A0F9A259A81E090E0A1E0B2E08D93BE
:100130009C93A1E0B2E00D911C91003D57E01507A2
:100140001CF011F00C94B800139AEF93FF93E4E2C3
:10015000F0E00E94D300FF91EF9113988AE090E0C5
:100160000E94DC00A1E0B2E00E94C6000C9499005D
:1001700080E880B92D9A84E690E00E94DC002D98FA
:10018000E1E0F0E00E94CD000C949300ED91FC9131
:10019000EF5FFF4FFC93EE93089588EE93E00CD051
:1001A0003197D9F708953197F1F70895689462F877
:1001B0000895E89462F80895EF93FF93EE27E82BF3
:1001C000E92B31F0E0EAFFE03197F1F70197D1F741
:1001D000FF91EF9108950F9301E00BBF0F91889469
:1001E00008950F930027F9CF0F9302E0F6CF0F93F6
:0A01F00003E0F3CF0F9304E0F0CF1B
:00000001FF
