:100000000C947200189500001895000018950000D7
:10001000189500001895000018950000189500002C
:10002000189500001895000018950000189500001C
:10003000189500001895000018950000189500000C
:1000400018950000189500001895000018950000FC
:1000500018950000189500001895000018950000EC
:10006000189500000C947E0118950000189500006A
:1000700018950000189500001895000018950000CC
:1000800018950000189500001895000018950000BC
:1000900018950000189500001895000018950000AC
:1000A000189500001895000018950000189500009C
:1000B000189500001895000018950000189500008C
:1000C000189500001895000018950000189500007C
:1000D000189500001895000018950000189500006C
:1000E000189500008FEF8DBFCCE9ECEE4E2E81E22B
:1000F0008EBFD1E2F0E25F2EA89584B7082E877FED
:1001000084BF88E199278093600090936000EEEFB0
:10011000FFE1A0E0B2E088278D933197E9F787E609
:100120008093C40080E08093C50088E18093C10083
:10013000662480E18093C40080E08093C5007091C4
:10014000C00072607093C00088E18093C10086E0B7
:100150008093C2007091C10070687093C10082E208
:100160008093CC0080E08093CD007091C8007260D5
:100170007093C80086E08093CA0088E18093C9002C
:100180000E940A01082F003018F011F00C94CA00E8
:100190000C94D9000E941001ACE2B2E08C93ACE266
:1001A000B2E08C910E945201ACE2B2E08C910E94CC
:1001B00034010E943B01082F003018F011F00C941C
:1001C000E3000C94ED000E944101ACE2B2E08C939C
:1001D000ACE2B2E08C910E943401ADE2B2E00D914C
:1001E0001C91003050E0150711F00C9408018BE1D0
:1001F0000E945201E8E5F3E00E9472010E9448016A
:100200000E944F0181E090E0ADE2B2E08D939C93BB
:100210000C94C00080912B02882309F081E008959E
:100220000F929F93AF93BF937F9380912B0288236C
:10023000E1F3F89480912B028A9580932B029091A0
:100240002902A1E0B2E0A90F0024B01D8C91939582
:10025000983209F499279093290278947F91BF915D
:10026000AF919F910F9008950090C00005FEFCCFC4
:100270008093C600089581E00090C80007FE88279B
:1002800008950090C80007FEFCCF8091CE0008952D
:100290000E946201802D11F005D0FACF08958DE003
:1002A00001D08AE00090C80005FEFCCF8093CE000C
:1002B00008953197F1F70895689462F80895E894E5
:1002C00062F80895D895319628F48F938BB783956B
:1002D0008BBF8F91002008950F9301E00BBF0F910A
:1002E000889408950F930027F9CF0F9302E0F6CF7B
:1002F0000F9303E0F3CF0F9304E0F0CF7F930F93BE
:10030000AF93BF938F939F938FB78F9380912B025F
:1003100008E2081B29F49091C6000E945C0113C0FA
:1003200000912A02A1E0B2E077279091C600A00FC9
:10033000B71F9C93839580932B020395083209F491
:10034000002700932A028F918FBF9F918F91BF91B9
:0C035000AF910F917F91189542200000A2
:00000001FF
