:100000000C947200189500001895000018950000D7
:10001000189500001895000018950000189500002C
:10002000189500001895000018950000189500001C
:10003000189500001895000018950000189500000C
:1000400018950000189500001895000018950000FC
:100050000C94FE00189500001895000018950000FB
:10006000189500000C949401189500001895000054
:1000700018950000189500001895000018950000CC
:1000800018950000189500001895000018950000BC
:1000900018950000189500001895000018950000AC
:1000A000189500001895000018950000189500009C
:1000B000189500001895000018950000189500008C
:1000C000189500001895000018950000189500007C
:1000D000189500001895000018950000189500006C
:1000E000189500008FEF8DBFC8E1E0E64E2E81E24B
:1000F0008EBFDEE1F6E15F2EA89584B7082E877FDC
:1001000084BF88E199278093600090936000EEEFB0
:10011000FFE1A0E0B2E088278D933197E9F787E609
:100120008093C40080E08093C50088E18093C10083
:10013000662487E880937A0080E080937C00709149
:100140007A00706870937A00209A2898279A80E144
:100150008093C40080E08093C5007091C0007260FD
:100160007093C00088E18093C10086E08093C20054
:100170007091C10070687093C1000FEF1FEF20E015
:1001800030E0A8E3B2E00D931D932D933C9380E003
:100190008093800085E08093810070916F00716092
:1001A00070936F0080918100887F809381007894A4
:1001B00028990C94E900A8E3B2E00D911C91005E2F
:1001C0001947109385000093840085E08093810097
:1001D000289A28990C94FC002F9A84EF91E00E94B1
:1001E00069012F9884EF91E00E94690180E090E01E
:1001F000ACE3B2E08D939C930C94D8000F921F92C5
:100200002F923F924F925F927F92AF92BF920F9345
:100210001F932F933F934F935F936F937F938F938E
:100220009F93AF93BF93CF93DF93EF93FF938FB7DA
:100230008F938BB78F9388278BBF80918100887FA6
:100240008093810081E090E0ACE3B2E08D939C93D9
:100250002898E4E8F3E00E9488010E944F010E9480
:1002600056018F918BBF8F918FBFFF91EF91DF91DF
:10027000CF91BF91AF919F918F917F916F915F913E
:100280004F913F912F911F910F91BF90AF907F9011
:100290005F904F903F902F901F900F9018950E9465
:1002A0007801802D11F005D0FACF08958DE001D0AE
:1002B0008AE00090C00005FEFCCF8093C600089540
:1002C0003197F1F70895689462F80895E89462F818
:1002D0000895EF93FF93EE27E82BE92B31F0E0EA46
:1002E000FFE03197F1F70197D1F7FF91EF91089572
:1002F000D895319628F48F938BB783958BBF8F91C8
:10030000002008950F9301E00BBF0F91889408958A
:100310000F930027F9CF0F9302E0F6CF0F9303E07E
:10032000F3CF0F9304E0F0CF7F930F93AF93BF937E
:100330008F939F938FB78F9380912B0208E2081BB6
:1003400029F49091C6000E94630113C000912A0213
:10035000A1E0B2E077279091C600A00FB71F9C9351
:10036000839580932B020395083209F400270093AC
:100370002A028F918FBF9F918F91BF91AF910F9163
:060380007F911895530067
:00000001FF
